:020000040800F2
:1000000000000520851700082117000827170008A1
:100010002D170008331700083917000800000000EA
:10002000000000000000000000000000516D00080A
:100030003F17000800000000616F0008C96F00084A
:10004000D5170008D5170008D5170008D5170008E0
:10005000D5170008D5170008D5170008D5170008D0
:10006000D5170008D5170008D5170008D5170008C0
:10007000D5170008D5170008D5170008D5170008B0
:10008000D5170008D5170008D5170008D5170008A0
:10009000D5170008D5170008D5170008D517000890
:1000A000D51700084D170008D5170008D517000808
:1000B000D5170008D5170008D5170008D517000870
:1000C000D5170008D5170008D5170008D517000860
:1000D000D5170008D5170008D5170008D517000850
:1000E000D5170008D5170008D5170008D517000840
:1000F000D5170008D5170008D5170008D517000830
:10010000D5170008D5170008D5170008D51700081F
:10011000D5170008D5170008D5170008D51700080F
:10012000D5170008D5170008D5170008D5170008FF
:10013000D5170008D5170008D5170008D5170008EF
:10014000D5170008D5170008D5170008D5170008DF
:10015000D5170008D5170008D5170008D5170008CF
:10016000D5170008D5170008D5170008D5170008BF
:10017000D5170008D5170008D517000800000000A3
:10018000D5170008D5170008D5170008D51700089F
:10019000D5170008D5170008D5170008D51700088F
:1001A000D5170008D5170008D5170008D51700087F
:1001B000D5170008D5170008D5170008D51700086F
:0801C000D5170008D51700084F
:1001D00010B5054C237833B9044B13B10448AFF381
:1001E00000800123237010BD2400002000000000C7
:1001F0003075000808B5034B1BB103490348AFF342
:10020000008008BD000000002800002030750008B4
:1002100053B94AB9002908BF00281CBF4FF0FF316D
:100220004FF0FF3000F06EB9ADF1080C6DE904CE6F
:1002300000F006F8DDF804E0DDE9022304B07047C1
:100240002DE9F047089D04468C46002B40F0838042
:100250008A42174647D9B2FA82F242B1C2F120006F
:1002600024FA00F09140974040EA010C94404FEA94
:100270001748230CBCFBF8F61FFA87FE08FB16C1D3
:1002800043EA014306FB0EF1994209D9FB1806F136
:10029000FF3080F01981994240F21681023E3B44C2
:1002A0005B1AA4B2B3FBF8F008FB103344EA034432
:1002B00000FB0EFEA64509D93C1900F1FF3380F082
:1002C0000581A64540F2028102383C4440EA0640DE
:1002D000A4EB0E0400261DB1D4400023C5E9004361
:1002E0003146BDE8F08702B9FFDEB2FA82F2002A99
:1002F00050D1CB1B4FEA174E1FFA87F80126B3FBEC
:10030000FEFC210C0EFB1C3341EA034108FB0CF3FD
:100310008B4207D979180CF1FF3002D28B4200F2E0
:10032000E9808446C91AA3B2B1FBFEF00EFB10119E
:1003300043EA014408FB00F8A04507D93C1900F145
:10034000FF3302D2A04500F2D9801846A4EB08047E
:1003500040EA0C40BFE78B4209D9002D00F0B18084
:100360000026C5E9000130463146BDE8F087B3FA02
:1003700083F6002E4AD18B4202D3824200F2B8802B
:10038000841A61EB030101208C46002DA8D0C5E939
:10039000004CA5E7C2F1200320FA03F6974001FACA
:1003A00002F04FEA174ED9403043030CB1FBFEF682
:1003B0001FFA87F80EFB161143EA014306FB08F10A
:1003C000994204FA02F409D9FB1806F1FF3C80F0C7
:1003D0008D80994240F28A80023E3B445B1A81B292
:1003E000B3FBFEF00EFB103341EA034100FB08F3C0
:1003F0008B4207D9791800F1FF3C73D28B4271D937
:1004000002383944CB1A40EA064678E7C6F1200C98
:1004100003FA06F422FA0CF31C4320FA0CF701FA53
:1004200006F34FEA144E21FA0CF11F433B0CB1FBCB
:10043000FEF91FFA84F80EFB191143EA014109FB8A
:1004400008FA8A4502FA06F200FA06F308D961189A
:1004500009F1FF3048D28A4546D9A9F10209214461
:10046000A1EB0A01BFB2B1FBFEF00EFB101147EA8F
:10047000014700FB08F8B84507D9E71900F1FF313B
:100480002ED2B8452CD90238274440EA0940A7EBC0
:100490000807A0FB02894F45C64649461AD317D024
:1004A0005DB1B3EB0E0267EB010707FA0CFCF240FB
:1004B0004CEA0202F740C5E9002700263146BDE8B4
:1004C000F0872E4628460BE70646E9E61846FDE685
:1004D0004345E5D2B8EB020E69EB04010138DFE7D2
:1004E0000846D2E760468DE78146B9E7664675E77C
:1004F00030464AE7ACF1020C394413E702383C4479
:1005000024E700BF704700BF80B400AFBFF34F8F38
:1005100000BFBFF36F8F00BF0D4B0022C3F8502206
:10052000BFF34F8F00BFBFF36F8F00BF084B5B69F6
:10053000074A43F400335361BFF34F8F00BFBFF34B
:100540006F8F00BF00BFBD465DF8047B704700BFE2
:1005500000ED00E080B485B000AF1F4B0022C3F86F
:100560008420BFF34F8F00BF1B4BD3F880307B60DC
:100570007B685B0BC3F30E03FB607B68DB08C3F394
:100580000903BB60FB685A0143F6E0731340BA6885
:10059000920711491343C1F86032BB685A1EBA6012
:1005A000002BEFD1FB685A1EFA60002BE5D1BFF398
:1005B0004F8F00BF084B5B69074A43F48033536198
:1005C000BFF34F8F00BFBFF36F8F00BF00BF143763
:1005D000BD465DF8047B704700ED00E080B500AFDC
:1005E000FFF792FFFFF7B6FF01F0F5F800F068F8AB
:1005F00000F0A4FB00F0BCFA00F0FEF800F050FBA5
:1006000000F0AEF900F0EAF900F026FA00F062FA24
:1006100000F0DEFA00F00CFB04F0BCF800F020F96A
:1006200000F05EF900F034FB04F080F9154A002177
:10063000154804F0E5F90346144A1360144A0021F2
:10064000144804F0DDF90346134A1360134A0021ED
:10065000134804F0D5F90346124A1360124A0021E8
:10066000124804F0CDF90346114A1360114A0021E3
:10067000114804F0C5F90346104A136004F08AF9E2
:10068000FEE700BF9C750008610E00085849002075
:10069000C0750008710E00081C4C0020E4750008AD
:1006A000810E0008204C002008760008910E0008FA
:1006B000E04A00202C760008A10E0008DC4A002049
:1006C00080B5B4B000AF07F1A00330220021184676
:1006D00006F026FF07F18C0300221A605A609A6028
:1006E000DA601A6107F1080384220021184606F037
:1006F00017FF3E4B1B6C3D4A43F0805313643B4B4A
:100700001B6C03F080537B607B68394B1B68384A55
:1007100043F440431360364B1B6803F440433B6093
:100720003B680123C7F8A0304FF48033C7F8A430EA
:100730000223C7F8B8304FF48003C7F8BC30192340
:10074000C7F8C0304FF4D873C7F8C4300223C7F8D5
:10075000C8300923C7F8CC3007F1A003184601F0D0
:10076000E7FC0346002B01D000F0B4FB01F090FC45
:100770000346002B01D000F0ADFB0F23C7F88C30EF
:100780000223C7F890300023C7F894304FF4A053E9
:10079000C7F898304FF48053C7F89C3007F18C03AA
:1007A0000721184601F068FF0346002B01D000F036
:1007B00091FB104BBB600023FB6400233B650023CF
:1007C0007B650023FB6600237B670023C7F884302A
:1007D00007F10803184602F057F90346002B01D031
:1007E00000F078FB00BFD037BD4680BD0038024026
:1007F00000700040C041210080B500AF164B174A81
:100800001A60154B00225A60134B00229A60124B5B
:100810000022DA60104B00221A610F4B00225A614D
:100820000D4B00229A610C4B00221A620A4B0022E7
:100830005A62094B00229A62074B0022DA62064B89
:1008400000221A63044801F0D5F80346002B01D0BA
:1008500000F040FB00BF80BD484B00200000055069
:1008600080B500AF1B4B1C4A1A601A4B1B4A5A60DA
:10087000184B00229A60174B0122DA60154B0022B8
:100880001A61144B00225A61124B00229A61114BDB
:100890000022DA610F4B00221A620E4801F0D0FAF2
:1008A0000346002B01D000F015FB0021094801F0A0
:1008B00057FB0346002B01D000F00CFB002105483C
:1008C00001F099FB0346002B01D000F003FB00BFB1
:1008D00080BD00BF904A002000540040684740207F
:1008E00080B500AF1B4B1C4A1A601A4B1B4A5A605A
:1008F000184B00229A60174B0122DA60154B002238
:100900001A61144B00225A61124B00229A61114B5A
:100910000022DA610F4B00221A620E4801F090FAB1
:100920000346002B01D000F0D5FA0021094801F060
:1009300017FB0346002B01D000F0CCFA002105483C
:1009400001F059FB0346002B01D000F0C3FA00BFB1
:1009500080BD00BF5C490020005C0040684740202B
:1009600080B500AF1B4B1C4A1A601A4B4FF48272C1
:100970005A60184B00229A60164B4FF44072DA60AE
:10098000144B00221A61134B00225A61114B4FF491
:1009900000729A610F4B0022DA610E4B00221A623C
:1009A0000C4B00225A620B4B00229A62094B072221
:1009B000DA62084B00221A63064B08225A63054884
:1009C00002F086FC0346002B01D000F083FA00BF42
:1009D00080BD00BF244C00200030014080B500AF36
:1009E0001B4B1C4A1A601A4B4FF482725A60184B08
:1009F00000229A60164B4FF44072DA60144B0022CA
:100A00001A61134B00225A61114B4FF400729A6124
:100A10000F4B0022DA610E4B00221A620C4B0022AF
:100A20005A620B4B00229A62094B0722DA62084B8A
:100A300000221A63064B08225A63054802F048FC5C
:100A40000346002B01D000F045FA00BF80BD00BF77
:100A5000A84900200038004080B500AF1B4B1C4A5D
:100A60001A601A4B4FF482725A60184B00229A6037
:100A7000164B4FF44072DA60144B00221A61134B8C
:100A800000225A61114B4FF400729A610F4B002201
:100A9000DA610E4B00221A620C4B00225A620B4B99
:100AA00000229A62094B0722DA62084B00221A637D
:100AB000064B08225A63054802F00AFC0346002B45
:100AC00001D000F007FA00BF80BD00BFE44A00205B
:100AD000003C004080B588B000AF07F11003002251
:100AE0001A605A609A60DA603B1D00221A605A60F0
:100AF0009A601E4B4FF080421A601C4B00225A60D5
:100B00001A4B00229A60194B4FF0FF32DA60174BF4
:100B100000221A61154B00229A61144802F083FCEE
:100B20000346002B01D000F0D5F94FF480533B6110
:100B300007F1100319460D4802F064FE0346002B2E
:100B400001D000F0C7F900237B600023FB603B1D50
:100B50001946064803F07EF80346002B01D000F04A
:100B6000B9F900BF2037BD4680BD00BF884C0020CA
:100B700080B500AF144B154A1A60134B4FF4E132A5
:100B80005A60114B00229A600F4B0022DA600E4B24
:100B900000221A610C4B0C225A610B4B00229A6105
:100BA000094B0022DA61084B00221A62064B002230
:100BB0005A62054803F0FAF80346002B01D000F012
:100BC00089F900BF80BD00BF984B00200010014094
:100BD00080B500AF144B154A1A60134B4FF4E13245
:100BE0005A60114B00229A600F4B0022DA600E4BC4
:100BF00000221A610C4B0C225A610B4B00229A61A5
:100C0000094B0022DA61084B00221A62064B0022CF
:100C10005A62054803F0CAF80346002B01D000F0E1
:100C200059F900BF80BD00BFD44C002000440040F3
:100C300080B500AF144B154A1A60134B4FF4E132E4
:100C40005A60114B00229A600F4B0022DA600E4B63
:100C500000221A610C4B0C225A610B4B00229A6144
:100C6000094B0022DA61084B00221A62064B00226F
:100C70005A62054803F09AF80346002B01D000F0B1
:100C800029F900BF80BD00BF0C4A00200048004089
:100C900080B400AF00BFBD465DF8047B7047000024
:100CA00080B588B000AF3B1D00221A605A609A6080
:100CB000DA601A615A619A611E4B1F4A1A601D4B15
:100CC00000225A601B4B00229A601A4B0422DA6001
:100CD000184B10221A61174B40225A61154B4FF4E2
:100CE00080729A61134B0022DA61124B00221A6261
:100CF000104B00225A620F4B00229A6202237B6043
:100D00000623BB600423FB6006233B6102237B6157
:100D10000223BB610223FB613B1D1946054802F01B
:100D2000A3FA0346002B01D000F0D4F800BF20370F
:100D3000BD4680BD584D0020400100A080B58EB05A
:100D400000AF07F1240300221A605A609A60DA604B
:100D50001A61414B1B6B404A43F0100313633E4B37
:100D60001B6B03F010033B623B6A3B4B1B6B3A4A25
:100D700043F020031363384B1B6B03F02003FB612C
:100D8000FB69354B1B6B344A43F080031363324BD2
:100D90001B6B03F08003BB61BB692F4B1B6B2E4A9F
:100DA00043F0040313632C4B1B6B03F004037B61C0
:100DB0007B69294B1B6B284A43F001031363264BC5
:100DC0001B6B03F001033B613B69234B1B6B224A06
:100DD00043F002031363204B1B6B03F00203FB6021
:100DE000FB681D4B1B6B1C4A43F0400313631A4BFB
:100DF0001B6B03F04003BB60BB68174B1B6B164AB1
:100E000043F008031363144B1B6B03F008037B6070
:100E10007B684FF400737B620023BB620023FB629C
:100E200007F1240319460D4800F05EFE4FF4E0532D
:100E30007B620223BB620023FB6203233B630A2322
:100E40007B6307F124031946044800F04DFE00BF00
:100E50003837BD4680BD00BF003802400000024068
:100E600080B582B000AF7860012003F06FFEFBE731
:100E700080B582B000AF7860012003F067FEFBE729
:100E800080B582B000AF7860012003F05FFEFBE721
:100E900080B582B000AF7860012003F057FEFBE719
:100EA00080B582B000AF7860012003F04FFEFBE711
:100EB00080B582B000AF78607B681B68044A9342BB
:100EC00001D100F095FC00BF0837BD4680BD00BFD2
:100ED0000000014080B400AF72B600BFFEE7000022
:100EE00080B582B000AF114B1B6C104A43F08053A9
:100EF00013640E4B1B6C03F080537B607B680B4BC1
:100F00005B6C0A4A43F480435364084B5B6C03F404
:100F100080433B603B6800220F216FF0010000F02E
:100F20003FFD00BF0837BD4680BD00BF003802400E
:100F300080B58EB000AF786007F1240300221A60FC
:100F40005A609A60DA601A617B681B68504A934263
:100F500040F09A804F4B5B6B4E4A43F00103536362
:100F60004C4B5B6B03F001033B623B6A494B1B6BD1
:100F7000484A43F010031363464B1B6B03F0100306
:100F8000FB61FB69434B1B6B424A43F00103136354
:100F9000404B1B6B03F00103BB61BB693D4B1B6BFB
:100FA0003C4A43F0040313633A4B1B6B03F0040306
:100FB0007B617B69374B1B6B364A43F00803136335
:100FC000344B1B6B03F008033B613B69314B1B6BDC
:100FD000304A43F0400313632E4B1B6B03F0400376
:100FE000FB60FB6870237B620223BB620023FB6211
:100FF00000233B630D237B6307F124031946264836
:1010000000F072FD50237B620223BB620023FB626F
:1010100000233B630D237B6307F1240319461F481C
:1010200000F062FD4FF4E0737B620223BB62002399
:10103000FB6200233B630D237B6307F12403194606
:10104000174800F051FD08237B620223BB62002396
:10105000FB6200233B630D237B6307F124031946E6
:10106000104800F041FD4FF420637B620223BB6215
:101070000023FB6200233B630D237B6307F1240302
:101080001946094800F030FD00BF3837BD4680BD25
:1010900000000550003802400010024000000240ED
:1010A00000080240000C02400018024080B58CB0DD
:1010B00000AF786007F11C0300221A605A609A6042
:1010C000DA601A617B681B683D4A934229D13D4B27
:1010D0001B6B3C4A43F0020313633A4B1B6B03F058
:1010E0000203BB61BB694FF44073FB6112233B6297
:1010F00001237B620323BB620423FB6207F11C0311
:101100001946314800F0F0FC2E4B1B6C2D4A43F47D
:10111000001313642B4B1B6C03F400137B617B697E
:101120004AE07B681B68294A934245D1254B1B6BDB
:10113000244A43F004031363224B1B6B03F00403A4
:101140003B613B691F4B1B6B1E4A43F0010313635A
:101150001C4B1B6B03F00103FB60FB684FF4007337
:10116000FB6112233B6201237B620323BB620423E6
:10117000FB6207F11C031946154800F0B5FC4FF45B
:101180008073FB6112233B6201237B620323BB62FA
:101190000423FB6207F11C0319460E4800F0A4FC6F
:1011A000084B1B6C074A43F400031364054B1B6C8C
:1011B00003F40003BB60BB6800BF3037BD4680BD91
:1011C000005400400038024000040240005C00402F
:1011D000000802400000024080B590B000AF786087
:1011E00007F12C0300221A605A609A60DA601A61D3
:1011F0007B681B68704A934244D1704B5B6C6F4AAA
:1012000043F4805353646D4B5B6C03F48053BB62B7
:10121000BB6A6A4B1B6B694A43F001031363674B5C
:101220001B6B03F001037B627B6A644B1B6B634A9D
:1012300043F002031363614B1B6B03F002033B6239
:101240003B6AA023FB6202233B6300237B630323EF
:10125000BB630523FB6307F12C031946584800F0D4
:1012600043FC1023FB6202233B6300237B630323C5
:10127000BB630523FB6307F12C031946514800F0BB
:1012800033FC94E07B681B684F4A934245D14B4B3B
:101290001B6C4A4A43F480431364484B1B6C03F4B1
:1012A0008043FB61FB69454B1B6B444A43F00403DD
:1012B0001363424B1B6B03F00403BB61BB693F4BE1
:1012C0001B6B3E4A43F0020313633C4B1B6B03F062
:1012D00002037B617B690623FB6202233B630023DD
:1012E0007B630323BB630523FB6307F12C031946D0
:1012F000364800F0F9FB4FF40053FB6202233B63D6
:1013000000237B630323BB630523FB6307F12C03EB
:1013100019462C4800F0E8FB49E07B681B682C4A22
:10132000934244D1254B1B6C244A43F4004313647D
:10133000224B1B6C03F400433B613B691F4B1B6B4F
:101340001E4A43F0020313631C4B1B6B03F00203A2
:10135000FB60FB68194B1B6B184A43F004031363D3
:10136000164B1B6B03F00403BB60BB680423FB62DA
:1013700002233B6300237B630323BB630723FB63DD
:1013800007F12C0319460F4800F0AEFB4FF4406301
:10139000FB6202233B6300237B630323BB630623BF
:1013A000FB6307F12C031946084800F09DFB00BFC2
:1013B0004037BD4680BD00BF0030014000380240CC
:1013C00000000240000402400038004000080240D3
:1013D000003C004080B485B000AF78607B681B683B
:1013E000B3F1804F0BD1094B1B6C084A43F001034A
:1013F0001364064B1B6C03F00103FB60FB6800BF2A
:101400001437BD465DF8047B704700BF00380240CA
:1014100080B58EB000AF786007F1240300221A6017
:101420005A609A60DA601A617B681B68454A934289
:1014300028D1454B5B6C444A43F010035364424B44
:101440005B6C03F010033B623B6A3F4B1B6B3E4AF5
:1014500043F0020313633C4B1B6B03F00203FB617D
:10146000FB69C0237B620223BB620023FB62032370
:101470003B6307237B6307F124031946334800F0DD
:1014800033FB5BE07B681B68314A934228D12E4BCB
:101490001B6C2D4A43F4003313642B4B1B6C03F479
:1014A0000033BB61BB69284B1B6B274A43F0010328
:1014B0001363254B1B6B03F001037B617B690C23DA
:1014C0007B620223BB620023FB6203233B6307238F
:1014D0007B6307F1240319461E4800F005FB2DE04D
:1014E0007B681B681C4A934228D1174B1B6C164A19
:1014F00043F480231364144B1B6C03F480233B617F
:101500003B69114B1B6B104A43F0020313630E4BF4
:101510001B6B03F00203FB60FB684FF440637B62CC
:101520000223BB620023FB6203233B6307237B632D
:1015300007F124031946054800F0D6FA00BF3837F2
:10154000BD4680BD0010014000380240000402404A
:1015500000440040000002400048004080B586B0D2
:1015600000AF3B1D00221A605A609A60DA601A616F
:10157000334B1B68002B5ED1314B01221A60314B7B
:101580009B6B304A43F0010393632E4B9B6B03F03C
:1015900001033B603B684FF63F037B600223BB6067
:1015A0000023FB6003233B610C237B613B1D194639
:1015B000254800F099FA19237B600223BB600023C1
:1015C000FB6003233B610C237B613B1D19461F48D5
:1015D00000F08AFA48F233137B600223BB600023D9
:1015E000FB6003233B610C237B613B1D19461848BC
:1015F00000F07AFA4FF680737B600223BB60002311
:10160000FB6003233B610C237B613B1D19461148A2
:1016100000F06AFA4CF203737B600223BB60002384
:10162000FB6003233B610C237B613B1D19460A4889
:1016300000F05AFA00E000BF1837BD4680BD00BF79
:101640004000002000380240001402400008024020
:101650000018024000100240000C024080B582B029
:1016600000AF7860FFF77AFF00BF0837BD4680BD46
:1016700080B58CB000AF78600023FB620023BB62B2
:1016800000227968192000F08BF9192000F0A4F9E4
:101690001F4B5B6C1E4A43F0010353641C4B5B6C95
:1016A00003F00103FB60FB6807F1100207F114036C
:1016B0001146184601F0B6F901F0A0F903465B00A7
:1016C000FB62FB6A134AA2FB03239B0C013BBB6238
:1016D000114B124A1A60104B40F2E732DA600E4AA0
:1016E000BB6A53600C4B00221A610B4B00229A60BC
:1016F000094801F098FE0346002B04D1064801F08A
:10170000E9FE034600E0012318463037BD4680BDA0
:101710000038024083DE1B438C4D00200000014056
:1017200080B400AFFEE780B400AFFEE780B400AF46
:10173000FEE780B400AFFEE780B400AFFEE780B400
:1017400000AF00BFBD465DF8047B704780B500AFB9
:10175000024801F037FF00BF80BD00BF8C4D002064
:1017600080B400AF064BD3F88830054A43F47003C9
:10177000C2F8883000BFBD465DF8047B704700BFEB
:1017800000ED00E0DFF834D00D480E490E4A00238A
:1017900002E0D458C4500433C4188C42F9D30B4A25
:1017A0000B4C002301E013600432A242FBD3FFF78D
:1017B000D7FF05F083FEFEF711FF704700000520FC
:1017C000000000202400002078760008240000207B
:1017D00088520020FEE780B500AF032000F0D5F866
:1017E0000020FFF745FFFFF77BFB0023184680BD75
:1017F00080B400AF064B1B781A46064B1B68134497
:10180000044A136000BFBD465DF8047B704700BF0B
:1018100008000020D84D002080B400AF034B1B68A7
:101820001846BD465DF8047B704700BFD84D0020C8
:1018300080B485B000AF78607B6803F00703FB607D
:101840000B4BDB68BB60BA684FF6FF031340BB600D
:10185000FB681A02BB681A43064B1343BB60044A79
:10186000BB68D36000BF1437BD465DF8047B70478A
:1018700000ED00E00000FA0580B400AF044BDB6827
:101880001B0A03F007031846BD465DF8047B70474A
:1018900000ED00E080B483B000AF0346FB7197F920
:1018A0000730002B0BDBFB7903F01F02074997F988
:1018B00007305B09012000FA02F241F8232000BF43
:1018C0000C37BD465DF8047B704700BF00E100E0C7
:1018D00080B483B000AF03463960FB7197F90730DD
:1018E000002B0ADB3B68DAB20C4997F9073012018A
:1018F000D2B20B4483F800230AE03B68DAB208490D
:10190000FB7903F00F03043B1201D2B20B441A76A9
:1019100000BF0C37BD465DF8047B704700E100E076
:1019200000ED00E080B489B000AFF860B9607A6083
:10193000FB6803F00703FB61FB69C3F10703042B9A
:1019400028BF0423BB61FB690433062B02D9FB6962
:10195000033B00E000237B614FF0FF32BB6902FADA
:1019600003F3DA43BB681A407B699A404FF0FF31BA
:101970007B6901FA03F3D9437B680B401343184694
:101980002437BD465DF8047B704780B582B000AF58
:1019900078607868FFF74CFF00BF0837BD4680BD10
:1019A00080B586B000AF0346B9607A60FB73002350
:1019B0007B61FFF761FF78617A68B9687869FFF742
:1019C000B1FF024697F90F3011461846FFF780FF26
:1019D00000BF1837BD4680BD80B582B000AF03465A
:1019E000FB7197F907301846FFF754FF00BF08371F
:1019F000BD4680BD80B582B000AF78607B68002BAB
:101A000001D1012369E07B6893F83530DBB2002B0C
:101A100002D17868FFF78CFA7B68022283F83520C0
:101A20007B689B69002B02D07B6800225A627B682E
:101A30001B6819687B681A682A4B0B4013607B6827
:101A40001B6819687B685A687B685B691A437B6806
:101A5000DB681A437B681B691A437B689B681A43DF
:101A60007B689B691A437B681B6A1A437B685B6AC5
:101A70001A437B689B6A1A437B68DB6A1A437B685C
:101A80001B6B1A437B681B680A431A607B685B68A0
:101A9000102B12D17B681B7F1A467B685B7F1B0271
:101AA0001A437B689B7F1B0442EA03017B68DB7F50
:101AB0001A067B681B680A439A617B681B68DA68B0
:101AC0007B681B6842F01E02DA607B680022DA64E1
:101AD0007B68012283F83520002318460837BD466D
:101AE00080BD00BF07F0E0FF80B489B000AF786030
:101AF00039600023FB6100237B6100233B610023ED
:101B0000BB610023FB6175E10122FB6902FA03F36B
:101B10007B613B681B687A6913403B613A697B696A
:101B20009A4240F064813B685B68012B0BD03B68B4
:101B30005B68022B07D03B685B68112B03D03B68C6
:101B40005B68122B30D17B689B68BB61FB695B00D3
:101B5000032202FA03F3DB43BA691340BB613B681B
:101B6000DA68FB695B0002FA03F3BA691343BB61ED
:101B70007B68BA699A607B685B68BB610122FB691C
:101B800002FA03F3DB43BA691340BB613B685B684D
:101B90001B0903F00102FB6902FA03F3BA6913435C
:101BA000BB617B68BA695A607B68DB68BB61FB69B3
:101BB0005B00032202FA03F3DB43BA691340BB6103
:101BC0003B689A68FB695B0002FA03F3BA69134346
:101BD000BB617B68BA69DA603B685B68022B03D043
:101BE0003B685B68122B23D1FB69DA087B680832FB
:101BF00053F82230BB61FB6903F007039B000F22FF
:101C000002FA03F3DB43BA691340BB613B681A690C
:101C1000FB6903F007039B0002FA03F3BA6913435D
:101C2000BB61FB69DA087B680832B96943F82210A6
:101C30007B681B68BB61FB695B00032202FA03F34C
:101C4000DB43BA691340BB613B685B6803F0030286
:101C5000FB695B0002FA03F3BA691343BB617B685B
:101C6000BA691A603B685B6803F08053002B00F090
:101C7000BE80664B5B6C654A43F480435364634BA0
:101C80005B6C03F48043FB60FB68614AFB699B0863
:101C9000023352F82330BB61FB6903F003039B005E
:101CA0000F2202FA03F3DB43BA691340BB617B687E
:101CB000584A934237D07B68574A934231D07B6869
:101CC000564A93422BD07B68554A934225D07B6875
:101CD000544A93421FD07B68534A934219D07B6881
:101CE000524A934213D07B68514A93420DD07B688D
:101CF000504A934207D07B684F4A934201D109234F
:101D000012E00A2310E008230EE007230CE006236C
:101D10000AE0052308E0042306E0032304E002238D
:101D200002E0012300E00023FA6902F003029200BE
:101D30009340BA691343BB613549FB699B08023381
:101D4000BA6941F823203D4B1B68BB613B69DB430B
:101D5000BA691340BB613B685B6803F48033002BB6
:101D600003D0BA693B691343BB61344ABB69136052
:101D7000324B5B68BB613B69DB43BA691340BB61B3
:101D80003B685B6803F40033002B03D0BA693B69FE
:101D90001343BB61294ABB695360284B9B68BB61F5
:101DA0003B69DB43BA691340BB613B685B6803F482
:101DB0008013002B03D0BA693B691343BB611F4AF0
:101DC000BB6993601D4BDB68BB613B69DB43BA6950
:101DD0001340BB613B685B6803F40013002B03D026
:101DE000BA693B691343BB61144ABB69D360FB69A1
:101DF0000133FB61FB690F2B7FF686AE00BF00BF8E
:101E00002437BD465DF8047B704700BF00380240B0
:101E10000038014000000240000402400008024077
:101E2000000C024000100240001402400018024062
:101E3000001C02400020024000240240003C0140FF
:101E400080B582B000AF78607B68002B01D10123A0
:101E50007FE07B6893F84130DBB2002B06D17B68D2
:101E6000002283F840207868FFF720F97B6824225D
:101E700083F841207B681B681A687B681B6822F026
:101E800001021A607B685A687B681B6822F07062E6
:101E90001A617B681B689A687B681B6822F40042A1
:101EA0009A607B68DB68012B07D17B689A687B6846
:101EB0001B6842F400429A6006E07B689A687B687F
:101EC0001B6842F404429A607B68DB68022B04D1F1
:101ED0007B681B684FF400625A607B681B68596816
:101EE0007B681A681D4B0B4353607B681B68DA687C
:101EF0007B681B6822F40042DA607B681A697B68A1
:101F00005B6942EA03017B689B691A027B681B6874
:101F10000A43DA607B68D9697B681A6A7B681B6848
:101F20000A431A607B681B681A687B681B6842F06A
:101F300001021A607B6800225A647B68202283F8C1
:101F400041207B6800221A637B68002283F84220CC
:101F5000002318460837BD4680BD00BF0080000240
:101F600080B483B000AF786039607B6893F841300B
:101F7000DBB2202B38D17B6893F84030012B01D1A4
:101F8000022332E07B68012283F840207B68242210
:101F900083F841207B681B681A687B681B6822F005
:101FA00001021A607B681B681A687B681B6822F450
:101FB00080521A607B681B6819687B681B683A68E6
:101FC0000A431A607B681B681A687B681B6842F0CA
:101FD00001021A607B68202283F841207B6800227E
:101FE00083F84020002300E0022318460C37BD464A
:101FF0005DF8047B704780B485B000AF78603960CD
:102000007B6893F84130DBB2202B39D17B6893F8A1
:102010004030012B01D1022333E07B68012283F899
:1020200040207B68242283F841207B681B681A6863
:102030007B681B6822F001021A607B681B681B68C2
:10204000FB60FB6823F47063FB603B681B02FA686B
:102050001343FB607B681B68FA681A607B681B6827
:102060001A687B681B6842F001021A607B682022B4
:1020700083F841207B68002283F84020002300E0A1
:10208000022318461437BD465DF8047B70470000F4
:1020900080B582B000AF00237B60234B1B6C224ACB
:1020A00043F080531364204B1B6C03F080533B6060
:1020B0003B681E4B1B681D4A43F480331360FFF7D7
:1020C000ABFB786009E0FFF7A7FB02467B68D31AF9
:1020D000B3F57A7F01D9032322E0144B5B6803F444
:1020E0008033B3F5803FEED1104B1B680F4A43F4A9
:1020F00000331360FFF790FB786009E0FFF78CFB7B
:1021000002467B68D31AB3F57A7F01D9032307E02F
:10211000064B5B6803F40033B3F5003FEED10023B8
:1021200018460837BD4680BD0038024000700040A8
:1021300080B586B000AF78600023FB757B68002B0C
:1021400001D1012391E27B681B6803F00103002B9E
:1021500000F08780964B9B6803F00C03042B0CD097
:10216000934B9B6803F00C03082B12D1904B5B68D8
:1021700003F48003B3F5800F0BD18D4B1B6803F480
:102180000033002B6CD07B685B68002B68D1012387
:102190006BE27B685B68B3F5803F06D1844B1B68BC
:1021A000834A43F4803313602EE07B685B68002B26
:1021B0000CD17F4B1B687E4A23F4803313607C4B29
:1021C0001B687B4A23F4802313601DE07B685B68F7
:1021D000B3F5A02F0CD1764B1B68754A43F48023CE
:1021E0001360734B1B68724A43F4803313600BE037
:1021F0006F4B1B686E4A23F4803313606C4B1B6873
:102200006B4A23F4802313607B685B68002B13D038
:10221000FFF702FB386108E0FFF7FEFA02463B6970
:10222000D31A642B01D903231FE2614B1B6803F40B
:102230000033002BF0D014E0FFF7EEFA386108E02D
:10224000FFF7EAFA02463B69D31A642B01D903234C
:102250000BE2574B1B6803F40033002BF0D100E076
:1022600000BF7B681B6803F00203002B69D0504B52
:102270009B6803F00C03002B0BD04D4B9B6803F0C5
:102280000C03082B1CD14A4B5B6803F48003002B22
:1022900016D1474B1B6803F00203002B05D07B6867
:1022A000DB68012B01D00123DFE1414B1B6823F0E8
:1022B000F8027B681B69DB003D4913430B6040E07B
:1022C0007B68DB68002B23D0394B1B68384A43F00E
:1022D00001031360FFF7A0FA386108E0FFF79CFAEA
:1022E00002463B69D31A022B01D90323BDE1304BCF
:1022F0001B6803F00203002BF0D02D4B1B6823F06A
:10230000F8027B681B69DB00294913430B6018E066
:10231000274B1B68264A23F001031360FFF77CFA62
:10232000386108E0FFF778FA02463B69D31A022BBE
:1023300001D9032399E11E4B1B6803F00203002B14
:10234000F0D17B681B6803F00803002B38D07B6852
:102350005B69002B19D0164B5B6F154A43F00103E4
:102360005367FFF759FA386108E0FFF755FA02465C
:102370003B69D31A022B01D9032376E10C4B5B6F27
:1023800003F00203002BF0D01AE0094B5B6F084A00
:1023900023F001035367FFF73FFA38610AE0FFF7C4
:1023A0003BFA02463B69D31A022B03D903235CE1B3
:1023B00000380240914B5B6F03F00203002BEED11B
:1023C0007B681B6803F00403002B00F0A4808B4B98
:1023D0001B6C03F08053002B0DD1884B1B6C874A7C
:1023E00043F080531364854B1B6C03F08053BB6038
:1023F000BB680123FB75824B1B6803F48073002BC1
:1024000018D17F4B1B687E4A43F480731360FFF73B
:1024100003FA386108E0FFF7FFF902463B69D31A77
:10242000642B01D9032320E1754B1B6803F48073EF
:10243000002BF0D07B689B68012B06D16F4B1B6F84
:102440006E4A43F0010313672DE07B689B68002B05
:102450000CD16A4B1B6F694A23F001031367674B6A
:102460001B6F664A23F0040313671CE07B689B68BC
:10247000052B0CD1614B1B6F604A43F004031367BB
:102480005E4B1B6F5D4A43F0010313670BE05B4B30
:102490001B6F5A4A23F001031367584B1B6F574AAF
:1024A00023F0040313677B689B68002B15D0FFF7AC
:1024B000B3F938610AE0FFF7AFF902463B69D31A76
:1024C00041F28832934201D90323CEE04B4B1B6F7C
:1024D00003F00203002BEED014E0FFF79DF9386102
:1024E0000AE0FFF799F902463B69D31A41F28832B4
:1024F000934201D90323B8E0404B1B6F03F0020362
:10250000002BEED1FB7D012B05D13C4B1B6C3B4AD4
:1025100023F0805313647B689B69002B00F0A48038
:10252000364B9B6803F00C03082B6BD07B689B69D0
:10253000022B49D1314B1B68304A23F08073136062
:10254000FFF76AF9386108E0FFF766F902463B6970
:10255000D31A022B01D9032387E0284B1B6803F011
:102560000073002BF0D17B68DA697B681B6A1A4321
:102570007B685B6A9B011A437B689B6A5B08013B33
:102580001B041A437B68DB6A1B0613431B4A43F098
:1025900000535360194B1B68184A43F08073136053
:1025A000FFF73AF9386108E0FFF736F902463B6970
:1025B000D31A022B01D9032357E0104B1B6803F0F9
:1025C0000073002BF0D04FE00C4B1B680B4A23F03C
:1025D00080731360FFF720F9386108E0FFF71CF9FA
:1025E00002463B69D31A022B01D903233DE0034B7A
:1025F0001B6803F00073002BF0D135E00038024077
:10260000007000401B4B5B68FB607B689B69012B83
:1026100028D0FB6803F480027B68DB699A4221D1F1
:10262000FB6803F03F027B681B6A9A421AD1FA6882
:1026300047F6C07313407A68526A9201934211D1EF
:10264000FB6803F440327B689B6A5B08013B1B0418
:102650009A4207D1FB6803F070627B68DB6A1B0655
:102660009A4201D0012300E0002318461837BD46E6
:1026700080BD00BF0038024080B584B000AF7860F4
:1026800039600023FB607B68002B01D10123D0E07F
:102690006A4B1B6803F00F033A689A4210D9674BE4
:1026A0001B6823F00F0265493B6813430B60634BC3
:1026B0001B6803F00F033A689A4201D00123B8E087
:1026C0007B681B6803F00203002B20D07B681B682B
:1026D00003F00403002B05D0594B9B68584A43F480
:1026E000E05393607B681B6803F00803002B05D060
:1026F000534B9B68524A43F460439360504B9B6832
:1027000023F0F0027B689B684D4913438B607B6824
:102710001B6803F00103002B40D07B685B68012B32
:1027200007D1474B1B6803F40033002B15D101235D
:102730007FE07B685B68022B07D1414B1B6803F08D
:102740000073002B09D1012373E03D4B1B6803F09C
:102750000203002B01D101236BE0394B9B6823F06E
:1027600003027B685B68364913438B60FFF754F8BC
:10277000F8600AE0FFF750F80246FB68D31A41F20E
:102780008832934201D9032353E02D4B9B6803F019
:102790000C027B685B689B009A42EBD1274B1B685D
:1027A00003F00F033A689A4210D2244B1B6823F0BF
:1027B0000F0222493B6813430B60204B1B6803F058
:1027C0000F033A689A4201D0012332E07B681B680C
:1027D00003F00403002B08D0194B9B6823F4E0524C
:1027E0007B68DB68164913438B607B681B6803F0CA
:1027F0000803002B09D0124B9B6823F460427B68CE
:102800001B69DB000E4913438B6000F021F8024680
:102810000B4B9B681B0903F00F030A49CB5C22FAA0
:1028200003F3094A1360094B1B681846FEF720FFA3
:10283000002318461037BD4680BD00BF003C024053
:1028400000380240507600080000002004000020FC
:10285000B0B584B000AF002179600021F96000219B
:1028600039600021B9605249896801F00C010829DA
:102870000DD0082900F29480002902D0042903D049
:102880008EE04C4BBB608EE04B4BBB608BE048490D
:10289000496801F03F0179604549496801F48001C8
:1028A000002924D042494968890908464FF00001AF
:1028B00040F2FF144FF0000500EA040201EA0503AC
:1028C0003D4901FB03F0002101FB02F144183A49A4
:1028D000A2FB0101631819467B681A464FF00003FA
:1028E000FDF796FC02460B461346FB604AE0304B70
:1028F0005B689B091A464FF0000340F2FF104FF04F
:10290000000102EA000403EA0105204629464FF0CF
:1029100000024FF000034B0143EAD063420110462E
:102920001946001B61EB05014FF000024FF0000358
:102930008B0143EA90638201121A63EB01034FF0AB
:1029400000004FF00001D90041EA5271D000024668
:102950000B46121945EB03034FF000004FF0000146
:10296000990241EA9251900202460B4610461946DE
:102970007B681A464FF00003FDF74AFC02460B46FF
:102980001346FB600A4B5B681B0C03F00303013327
:102990005B003B60FA683B68B2FBF3F3BB6002E0AC
:1029A000044BBB6000BFBB6818461037BD46B0BDC6
:1029B000003802400024F40040787D0180B400AF6C
:1029C000034B1B681846BD465DF8047B704700BF8B
:1029D0000000002080B500AFFFF7F0FF0246054B76
:1029E0009B689B0A03F007030349CB5C22FA03F3BD
:1029F000184680BD003802406076000880B500AF00
:102A0000FFF7DCFF0246054B9B685B0B03F00703F7
:102A10000349CB5C22FA03F3184680BD003802401C
:102A20006076000880B483B000AF786039607B685E
:102A30000F221A60124B9B6803F003027B685A60F6
:102A40000F4B9B6803F0F0027B689A600C4B9B680D
:102A500003F4E0527B68DA60094B9B68DB0803F4FF
:102A6000E0527B681A61074B1B6803F00F023B685A
:102A70001A6000BF0C37BD465DF8047B704700BF8D
:102A800000380240003C024080B588B000AF78605A
:102A900000237B6100233B610023FB600023FB617B
:102AA0000023BB617B681B6803F00103002B12D07D
:102AB000694B9B68684A23F400039360664B9A68ED
:102AC0007B685B6B644913438B607B685B6B002B9B
:102AD00001D10123FB617B681B6803F40023002BF9
:102AE00017D05D4BD3F88C3023F440127B68DB6B3E
:102AF00059491343C1F88C307B68DB6BB3F5801FF9
:102B000001D10123FB617B68DB6B002B01D1012329
:102B1000BB617B681B6803F48013002B17D04E4BFE
:102B2000D3F88C3023F440027B681B6C4A49134372
:102B3000C1F88C307B681B6CB3F5800F01D1012389
:102B4000FB617B681B6C002B01D10123BB617B689F
:102B50001B6803F08073002B01D00123FB617B68AD
:102B60001B6803F02003002B00F08B803A4B1B6C9A
:102B7000394A43F080531364374B1B6C03F0805386
:102B8000BB60BB68354B1B68344A43F480731360E9
:102B9000FEF742FE786108E0FEF73EFE02467B69E2
:102BA000D31A642B01D9032357E32C4B1B6803F47E
:102BB0008073002BF0D0284B1B6F03F440733B61F4
:102BC0003B69002B35D07B681B6B03F440733A697B
:102BD0009A422ED0204B1B6F23F440733B611E4B57
:102BE0001B6F1D4A43F4803313671B4B1B6F1A4A3C
:102BF00023F480331367184A3B691367164B1B6F26
:102C000003F00103012B14D1FEF706FE78610AE000
:102C1000FEF702FE02467B69D31A41F288329342E4
:102C200001D9032319E30C4B1B6F03F00203002BA4
:102C3000EED07B681B6B03F44073B3F5407F11D17A
:102C4000054B9B6823F4F8127B68196B044B0B400F
:102C5000014913438B600BE00038024000700040D4
:102C6000FFFCFF0FB14B9B68B04A23F4F81393604D
:102C7000AE4B1A6F7B681B6BC3F30B03AB4913435B
:102C80000B677B681B6803F01003002B10D0A74B69
:102C9000D3F88C30A54A23F08073C2F88C30A34B54
:102CA000D3F88C207B689B6BA0491343C1F88C3010
:102CB0007B681B6803F48043002B0AD09B4BD3F83E
:102CC000903023F440327B685B6E98491343C1F81F
:102CD00090307B681B6803F40043002B0AD0934BB1
:102CE000D3F8903023F440227B689B6E8F491343C6
:102CF000C1F890307B681B6803F48033002B0AD046
:102D00008A4BD3F8903023F440127B68DB6E8749FE
:102D10001343C1F890307B681B6803F40033002B29
:102D20000AD0824BD3F8903023F440027B681B6FAB
:102D30007E491343C1F890307B681B6803F0400361
:102D4000002B0AD0794BD3F8903023F003027B6834
:102D50005B6C76491343C1F890307B681B6803F0C5
:102D60008003002B0AD0714BD3F8903023F00C0273
:102D70007B689B6C6D491343C1F890307B681B687E
:102D800003F48073002B0AD0684BD3F8903023F003
:102D900030027B68DB6C65491343C1F890307B6877
:102DA0001B6803F40073002B0AD0604BD3F89030FB
:102DB00023F0C0027B681B6D5C491343C1F890305F
:102DC0007B681B6803F48063002B0AD0574BD3F851
:102DD000903023F440727B685B6D54491343C1F813
:102DE00090307B681B6803F40063002B0AD04F4BC4
:102DF000D3F8903023F440627B689B6D4B491343BA
:102E0000C1F890307B681B6803F48053002B0AD014
:102E1000464BD3F8903023F440527B68DB6D434936
:102E20001343C1F890307B681B6803F40053002BF8
:102E30000AD03E4BD3F8903023F440427B681B6E9F
:102E40003A491343C1F890307B681B6803F4800350
:102E5000002B0AD0354BD3F8903023F080627B688A
:102E60009B6F32491343C1F890307B681B6803F4B1
:102E70000013002B11D02D4BD3F8903023F00062BB
:102E80007B68DB6F29491343C1F890307B68DB6FA7
:102E9000B3F1006F01D10123BB617B681B6803F0B4
:102EA0000803002B01D00123BB617B681B6803F47E
:102EB0008023002B0AD01D4BD3F8903023F04072B2
:102EC0007B685B6F19491343C1F890307B681B68BE
:102ED00003F40003002B0BD0144BD3F8903023F0F5
:102EE00080527B68D3F8803010491343C1F890308A
:102EF000FB69012B06D07B681B6803F00073002B75
:102F000000F0D980094B1B68084A23F080631360E6
:102F1000FEF782FC78610BE0FEF77EFC02467B69DF
:102F2000D31A642B04D9032397E100BF0038024071
:102F30006C4B1B6803F00063002BEDD17B681B68B2
:102F400003F00103002B21D07B685B6B002B1DD1AC
:102F5000644BD3F884301B0C03F003033B61614BDB
:102F6000D3F884301B0E03F00F03FB607B685B68B3
:102F70009A013B691B041A43FB681B061A437B68D2
:102F80009B681B0757491343C1F884307B681B6853
:102F900003F40023002B04D07B68DB6BB3F5801FA8
:102FA0000AD07B681B6803F48013002B2ED07B684B
:102FB0001B6CB3F5800F29D14A4BD3F884301B0C1E
:102FC00003F003033B61474BD3F884301B0F03F03E
:102FD0000703FB607B685B689A013B691B041A432B
:102FE0007B68DB681B061A43FB681B073D491343DC
:102FF000C1F884303B4BD3F88C3023F01F027B6840
:103000005B6A013B37491343C1F88C307B681B680E
:1030100003F08073002B1DD0324BD3F884301B0E8D
:1030200003F00F033B612F4BD3F884301B0F03F0E9
:103030000703FB607B685B689A017B681B691B0464
:103040001A433B691B061A43FB681B0725491343B8
:10305000C1F884307B681B6803F00073002B11D02B
:103060007B685B689A017B681B691B041A437B6859
:10307000DB681B061A437B689B681B0719491343CF
:10308000C1F88430174B1B68164A43F08063136005
:10309000FEF7C2FB786108E0FEF7BEFB02467B69E3
:1030A000D31A642B01D90323D7E00E4B1B6803F01E
:1030B0000063002BF0D0BB69012B40F0CD80094BA1
:1030C0001B68084A23F080531360FEF7A5FB786164
:1030D0000AE0FEF7A1FB02467B69D31A642B03D9F1
:1030E0000323BAE0003802405E4B1B6803F0005334
:1030F000B3F1005FEDD07B681B6803F40023002B65
:1031000003D07B68DB6B002B09D07B681B6803F462
:103110008013002B2ED07B681B6C002B2AD1514BC7
:10312000D3F888301B0C03F003033B614D4BD3F8FD
:1031300088301B0F03F00703FB607B685B699A0113
:103140003B691B041A437B689B691B061A43FB6897
:103150001B0744491343C1F88830424BD3F88C30E5
:1031600023F4F8527B689B6A013B1B023D491343E1
:10317000C1F88C307B681B6803F40013002B22D04D
:103180007B68DB6FB3F1006F1DD1364BD3F888300D
:103190001B0E03F00F033B61324BD3F888301B0F3B
:1031A00003F00703FB607B685B699A017B681B6A1D
:1031B0001B041A433B691B061A43FB681B0729497A
:1031C0001343C1F888307B681B6803F00803002BA9
:1031D00028D0244BD3F888301B0E03F00F033B613B
:1031E000204BD3F888301B0C03F00303FB607B6893
:1031F0005B699A01FB681B041A433B691B061A436F
:103200007B68DB691B0717491343C1F88830154BEE
:10321000D3F88C3023F440327B68DB6A11491343C6
:10322000C1F88C300F4B1B680E4A43F0805313607B
:10323000FEF7F2FA786108E0FEF7EEFA02467B69E3
:10324000D31A642B01D9032307E0064B1B6803F054
:103250000053B3F1005FEFD1002318462037BD467D
:1032600080BD00BF0038024080B582B000AF7860FA
:1032700039607B68002B01D1012325E07B6893F83E
:103280002C30DBB2002B06D17B68002283F82D2086
:103290007868FEF7E3F97B68022283F82C207B68CC
:1032A0001A687B6804331946104601F081F97B687F
:1032B00018687B685B681A46396801F0EBF97B682F
:1032C000012283F82C20002318460837BD4680BD14
:1032D00080B584B000AF78607B68002B01D10123FA
:1032E0009DE07B685B6A002B08D17B685B68B3F567
:1032F000827F09D07B680022DA6105E07B680022CA
:103300001A617B6800225A617B6800229A627B689E
:1033100093F85D30DBB2002B06D17B68002283F886
:103320005C207868FDF758FF7B68022283F85D20F7
:103330007B681B681A687B681B6822F040021A6071
:103340007B68DB68B3F5E06F02D90023FB6002E025
:103350004FF48053FB607B68DB68B3F5706F07D078
:103360007B68DB68B3F5E06F02D07B6800229A626D
:103370007B685B6803F482727B689B6803F4044398
:103380001A437B681B6903F002031A437B685B697D
:1033900003F001031A437B689B6903F400731A432B
:1033A0007B68DB6903F038031A437B681B6A03F010
:1033B000800342EA03017B689B6A03F400527B6846
:1033C0001B680A431A607B689B691B0C03F00402AC
:1033D0007B685B6A03F010031A437B685B6B03F046
:1033E00008031A437B68DB6803F4706342EA030155
:1033F000FB6803F480527B681B680A435A607B6851
:103400001B68DA697B681B6822F40062DA617B68FA
:1034100000221A667B68012283F85D20002318468B
:103420001037BD4680BD80B582B000AF78607B6844
:10343000002B01D1012349E07B6893F83D30DBB2DA
:10344000002B06D17B68002283F83C207868FDF7CA
:10345000C1FF7B68022283F83D207B681A687B6885
:1034600004331946104600F0BBFA7B68012283F84A
:1034700048207B68012283F83E207B68012283F884
:103480003F207B68012283F840207B68012283F87B
:1034900041207B68012283F842207B68012283F867
:1034A00043207B68012283F844207B68012283F853
:1034B00045207B68012283F846207B68012283F83F
:1034C00047207B68012283F83D20002318460837F7
:1034D000BD4680BD80B485B000AF78607B6893F84E
:1034E0003D30DBB2012B01D0012354E07B68022286
:1034F00083F83D207B681B68DA687B681B6842F0B4
:103500000102DA607B681B68264A934222D07B68FE
:103510001B68B3F1804F1DD07B681B68224A934221
:1035200018D07B681B68214A934213D07B681B68C4
:103530001F4A93420ED07B681B681E4A934209D0F3
:103540007B681B681C4A934204D07B681B681B4A3B
:10355000934215D17B681B689A68194B1340FB6036
:10356000FB68062B15D0FB68B3F5803F11D07B6854
:103570001B681A687B681B6842F001021A6008E049
:103580007B681B681A687B681B6842F001021A603E
:1035900000E000BF002318461437BD465DF8047BE9
:1035A000704700BF000001400004004000080040D8
:1035B000000C0040000401400040014000180040A1
:1035C0000700010080B582B000AF78607B681B689F
:1035D0001B6903F00203022B22D17B681B68DB68A6
:1035E00003F00203022B1BD17B681B686FF0020201
:1035F0001A617B6801221A777B681B689B6903F05C
:103600000303002B03D0786800F0CCF905E078685C
:1036100000F0BEF9786800F0CFF97B6800221A77D5
:103620007B681B681B6903F00403042B22D17B68B1
:103630001B68DB6803F00403042B1BD17B681B6849
:103640006FF004021A617B6802221A777B681B689C
:103650009B6903F44073002B03D0786800F0A2F953
:1036600005E0786800F094F9786800F0A5F97B68C7
:1036700000221A777B681B681B6903F00803082B7C
:1036800022D17B681B68DB6803F00803082B1BD181
:103690007B681B686FF008021A617B6804221A7746
:1036A0007B681B68DB6903F00303002B03D0786899
:1036B00000F078F905E0786800F06AF9786800F0C1
:1036C0007BF97B6800221A777B681B681B6903F013
:1036D0001003102B22D17B681B68DB6803F01003FA
:1036E000102B1BD17B681B686FF010021A617B687E
:1036F00008221A777B681B68DB6903F44073002B90
:1037000003D0786800F04EF905E0786800F040F9E1
:10371000786800F051F97B6800221A777B681B6893
:103720001B6903F00103012B0ED17B681B68DB686A
:1037300003F00103012B07D17B681B686FF00102C6
:103740001A617868FDF7B4FB7B681B681B6903F09E
:103750008003802B0ED17B681B68DB6803F080033D
:10376000802B07D17B681B686FF080021A61786834
:1037700000F008FB7B681B681B6903F48073B3F5DA
:10378000807F0ED17B681B68DB6803F08003802B91
:1037900007D17B681B686FF480721A61786800F04B
:1037A000FBFA7B681B681B6903F04003402B0ED1BA
:1037B0007B681B68DB6803F04003402B07D17B6804
:1037C0001B686FF040021A61786800F0FFF87B68B0
:1037D0001B681B6903F02003202B0ED17B681B683C
:1037E000DB6803F02003202B07D17B681B686FF098
:1037F00020021A61786800F0BBFA00BF0837BD46A6
:1038000080BD000080B584B000AF786039607B680F
:1038100093F83C30012B01D10223B3E07B680122F5
:1038200083F83C207B68022283F83D207B681B687C
:103830009B68FB60FA68554B1340FB60FB6823F400
:103840007F43FB607B681B68FA689A603B681B6873
:10385000B3F5005F3ED0B3F5005F00F28780B3F5AB
:10386000805F00F08580B3F5805F7FD8702B1AD021
:10387000702B7BD8602B50D0602B77D8502B3CD04E
:10388000502B73D8402B58D0402B6FD8302B64D09E
:10389000302B6BD8202B60D0202B67D8002B5CD02E
:1038A000102B5AD062E07B6818683B6899683B68C7
:1038B0005A683B68DB6800F0ADF97B681B689B6861
:1038C000FB60FB6843F07703FB607B681B68FA686A
:1038D0009A604EE07B6818683B6899683B685A6854
:1038E0003B68DB6800F096F97B681B689A687B6828
:1038F0001B6842F480429A603BE07B6818683B6832
:1039000059683B68DB681A4600F00AF97B681B6857
:103910005021184600F063F92BE07B6818683B687B
:1039200059683B68DB681A4600F029F97B681B6818
:103930006021184600F053F91BE07B6818683B686B
:1039400059683B68DB681A4600F0EAF87B681B6838
:103950004021184600F043F90BE07B681A683B6889
:103960001B681946104600F03AF902E000BF00E07B
:1039700000BF7B68012283F83D207B68002283F82A
:103980003C20002318461037BD4680BD88FFFEFF4F
:1039900080B483B000AF786000BF0C37BD465DF8DF
:1039A000047B704780B483B000AF786000BF0C37F1
:1039B000BD465DF8047B704780B483B000AF78608B
:1039C00000BF0C37BD465DF8047B704780B483B000
:1039D00000AF786000BF0C37BD465DF8047B7047D0
:1039E00080B485B000AF786039607B681B68FB608D
:1039F0007B68404A934213D07B68B3F1804F0FD06D
:103A00007B683D4A93420BD07B683C4A934207D087
:103A10007B683B4A934203D07B683A4A934208D181
:103A2000FB6823F07003FB603B685B68FA68134334
:103A3000FB607B682F4A93422BD07B68B3F1804FA9
:103A400027D07B682C4A934223D07B682B4A934231
:103A50001FD07B682A4A93421BD07B68294A934235
:103A600017D07B68284A934213D07B68274A934239
:103A70000FD07B68264A93420BD07B68254A93423D
:103A800007D07B68244A934203D07B68234A934241
:103A900008D1FB6823F44073FB603B68DB68FA687D
:103AA0001343FB60FB6823F080023B685B691343B0
:103AB000FB607B68FA681A603B689A687B68DA6228
:103AC0003B681A687B689A627B680A4A934203D013
:103AD0007B680C4A934203D13B681A697B681A637E
:103AE0007B6801225A6100BF1437BD465DF8047B34
:103AF000704700BF00000140000400400008004083
:103B0000000C00400004014000400140004401401E
:103B10000048014000180040001C00400020004008
:103B200080B487B000AFF860B9607A60FB681B6A48
:103B30007B61FB681B6A23F00102FB681A62FB6869
:103B40009B693B613B6923F0F0033B617B681B0190
:103B50003A6913433B617B6923F00A037B617A690D
:103B6000BB6813437B61FB683A699A61FB687A69B9
:103B70001A6200BF1C37BD465DF8047B704780B4F5
:103B800087B000AFF860B9607A60FB681B6A23F009
:103B90001002FB681A62FB689B697B61FB681B6A09
:103BA0003B617B6923F470437B617B681B037A690B
:103BB00013437B613B6923F0A0033B61BB681B019E
:103BC0003A6913433B61FB687A699A61FB683A6919
:103BD0001A6200BF1C37BD465DF8047B704780B495
:103BE00085B000AF786039607B689B68FB60FB68DC
:103BF00023F07003FB603A68FB68134343F007034C
:103C0000FB607B68FA689A6000BF1437BD465DF8B8
:103C1000047B704780B487B000AFF860B9607A6009
:103C20003B60FB689B687B617B6923F47F437B611E
:103C30003B681A027B681A43BB6813437A691343D3
:103C40007B61FB687A699A6000BF1C37BD465DF8EE
:103C5000047B704780B485B000AF786039607B68C2
:103C600093F83C30012B01D102236DE07B680122E7
:103C700083F83C207B68022283F83D207B681B6828
:103C80005B68FB607B681B689B68BB607B681B682C
:103C9000304A934204D07B681B682F4A934208D174
:103CA000FB6823F47003FB603B685B68FA681343AE
:103CB000FB60FB6823F07003FB603B681B68FA68DD
:103CC0001343FB607B681B68FA685A607B681B685B
:103CD000204A934222D07B681B68B3F1804F1DD0ED
:103CE0007B681B681D4A934218D07B681B681C4A7E
:103CF000934213D07B681B681A4A93420ED07B68AC
:103D00001B68154A934209D07B681B68164A934288
:103D100004D07B681B68154A93420CD1BB6823F022
:103D20008003BB603B689B68BA681343BB607B68D9
:103D30001B68BA689A607B68012283F83D207B6823
:103D4000002283F83C20002318461437BD465DF856
:103D5000047B704700000140000401400004004063
:103D600000080040000C00400040014000180040E6
:103D700080B483B000AF786000BF0C37BD465DF8FB
:103D8000047B704780B483B000AF786000BF0C370D
:103D9000BD465DF8047B704780B483B000AF7860A7
:103DA00000BF0C37BD465DF8047B704780B582B01C
:103DB00000AF78607B68002B01D1012340E07B6875
:103DC0009B6F002B06D17B68002283F874207868F3
:103DD000FDF71EFB7B6824229A677B681B681A68C4
:103DE0007B681B6822F001021A60786800F02CF8EA
:103DF0000346012B01D1012322E07B685B6A002B83
:103E000002D0786800F082FA7B681B685A687B6889
:103E10001B6822F490425A607B681B689A687B6832
:103E20001B6822F02A029A607B681B681A687B680C
:103E30001B6842F001021A60786800F009FB034633
:103E400018460837BD4680BD80B588B000AF7860A1
:103E50000023BB777B689A687B681B691A437B6881
:103E60005B691A437B68DB6913437B617B681B6872
:103E70001A68A74B13407A68126879690B4313607C
:103E80007B681B685B6823F440517B68DA687B6859
:103E90001B680A435A607B689B697B617B681B6A6D
:103EA0007A6913437B617B681B689B6823F43061EC
:103EB0007B681B687A690A439A607B681B68954A2D
:103EC000934220D1944BD3F8903003F00303032B9B
:103ED00016D801A252F823F0E93E0008F53E00088A
:103EE000EF3E0008FB3E00080123FB774FE1022371
:103EF000FB774CE10423FB7749E10823FB7746E19C
:103F00001023FB7743E17B681B68844A934232D1DC
:103F1000814BD3F8903003F00C030C2B28D801A26E
:103F200052F823F0593F0008713F0008713F000824
:103F3000713F0008653F0008713F0008713F0008AD
:103F4000713F00085F3F0008713F0008713F0008A3
:103F5000713F00086B3F00080023FB7717E1022345
:103F6000FB7714E10423FB7711E10823FB770EE1D3
:103F70001023FB770BE17B681B68694A934220D1D1
:103F8000654BD3F8903003F03003302B13D0302B37
:103F900014D8202B09D0202B10D8002B02D0102BA6
:103FA00006D00BE00023FB77F1E00223FB77EEE085
:103FB0000423FB77EBE00823FB77E8E01023FB7793
:103FC000E5E07B681B68574A934220D1524BD3F8F7
:103FD000903003F0C003C02B13D0C02B14D8802B1B
:103FE00009D0802B10D8002B02D0402B06D00BE03C
:103FF0000023FB77CBE00223FB77C8E00423FB77A9
:10400000C5E00823FB77C2E01023FB77BFE07B68A5
:104010001B68454A934225D13F4BD3F8903003F4B7
:104020004073B3F5407F17D0B3F5407F17D8B3F591
:10403000007F0BD0B3F5007F11D8002B03D0B3F570
:10404000807F06D00BE00023FB77A0E00223FB7704
:104050009DE00423FB779AE00823FB7797E0102389
:10406000FB7794E07B681B68304A934225D12A4B4A
:10407000D3F8903003F44063B3F5406F17D0B3F535
:10408000406F17D8B3F5006F0BD0B3F5006F11D8A0
:10409000002B03D0B3F5806F06D00BE00123FB7734
:1040A00075E00223FB7772E00423FB776FE00823BF
:1040B000FB776CE01023FB7769E07B681B681C4A88
:1040C000934237D1144BD3F8903003F44053B3F5F7
:1040D000405F17D0B3F5405F17D8B3F5005F0BD042
:1040E000B3F5005F11D8002B03D0B3F5805F06D085
:1040F0000BE00023FB774AE00223FB7747E0042331
:10410000FB7744E00823FB7741E01023FB773EE098
:10411000F369FFEF00100140003802400044004006
:1041200000480040004C0040005000400014014096
:10413000007800407B681B68714A934225D1714B1F
:10414000D3F8903003F44043B3F5404F17D0B3F5A4
:10415000404F17D8B3F5004F0BD0B3F5004F11D82F
:10416000002B03D0B3F5804F06D00BE00023FB7784
:104170000DE00223FB770AE00423FB7707E0082326
:10418000FB7704E01023FB7701E01023FB777B68CB
:10419000DB69B3F5004F5BD1FB7F082B27D801A269
:1041A00052F823F0C9410008D1410008D941000864
:1041B000EF410008DF410008EF410008EF4100082F
:1041C000EF410008E7410008FEF704FCB86113E086
:1041D000FEF714FCB8610FE04B4BBB610CE0FEF73F
:1041E00037FBB86108E04FF40043BB6104E00023F3
:1041F000BB610123BB7700BFBB69002B74D0BB69D7
:104200005A007B685B685B081A447B685B68B2FB9A
:10421000F3F39BB23B613B690F2B16D93B69B3F5B6
:10422000803F12D23B699BB223F00F03FB813B69B5
:104230005B089BB203F007039AB2FB891343FB812F
:104240007B681B68FA89DA604EE00123BB774BE09C
:10425000FB7F082B27D801A252F823F081420008E7
:104260008942000891420008A742000897420008CE
:10427000A7420008A7420008A74200089F42000882
:10428000FEF7A8FBB86113E0FEF7B8FBB8610FE0DA
:104290001D4BBB610CE0FEF7DBFAB86108E04FF4A0
:1042A0000043BB6104E00023BB610123BB7700BF77
:1042B000BB69002B18D07B685B685A08BB691A443D
:1042C0007B685B68B2FBF3F39BB23B613B690F2BEE
:1042D00008D93B69B3F5803F04D27B681B683A6913
:1042E000DA6001E00123BB777B6800225A667B68B5
:1042F00000229A66BB7F18462037BD4680BD00BFAE
:10430000007C0040003802400024F40080B483B0F8
:1043100000AF78607B685B6A03F00103002B0AD072
:104320007B681B685B6823F400317B689A6A7B6852
:104330001B680A435A607B685B6A03F00203002B28
:104340000AD07B681B685B6823F480317B68DA6A7B
:104350007B681B680A435A607B685B6A03F004034E
:10436000002B0AD07B681B685B6823F480217B6884
:104370001A6B7B681B680A435A607B685B6A03F0B0
:104380000803002B0AD07B681B685B6823F400419C
:104390007B685A6B7B681B680A435A607B685B6A60
:1043A00003F01003002B0AD07B681B689B6823F482
:1043B00080517B689A6B7B681B680A439A607B68B4
:1043C0005B6A03F02003002B0AD07B681B689B68A4
:1043D00023F400517B68DA6B7B681B680A439A60A0
:1043E0007B685B6A03F04003002B1AD07B681B6874
:1043F0005B6823F480117B681A6C7B681B680A4336
:104400005A607B681B6CB3F5801F0AD17B681B6800
:104410005B6823F4C0017B685A6C7B681B680A43A5
:104420005A607B685B6A03F08003002B0AD07B68CC
:104430001B685B6823F400217B689A6C7B681B68AF
:104440000A435A6000BF0C37BD465DF8047B7047D5
:1044500080B586B002AF78607B680022C3F8802008
:10446000FDF7DAF9F8607B681B681B6803F0080346
:10447000082B0ED16FF07E430093FB6800224FF4AF
:104480000011786800F017F80346002B01D00323D1
:104490000DE07B6820229A677B682022DA677B68C0
:1044A00000221A667B68002283F8742000231846D5
:1044B0001037BD4680BD80B584B000AFF860B960EC
:1044C0003B601346FB715EE0BB69B3F1FF3F5AD01E
:1044D000FDF7A2F902463B68D31ABA699A4202D3A1
:1044E000BB69002B1BD1FB681B681A68FB681B6843
:1044F00022F4D0721A60FB681B689A68FB681B681C
:1045000022F001029A60FB6820229A67FB68202251
:10451000DA67FB68002283F87420032343E0FB681A
:104520001B681B6803F00403002B2CD0FB681B687E
:10453000DB6903F40063B3F5006F24D1FB681B68EB
:104540004FF400621A62FB681B681A68FB681B68FC
:1045500022F4D0721A60FB681B689A68FB681B68BB
:1045600022F001029A60FB6820229A67FB682022F1
:10457000DA67FB682022C3F88020FB68002283F8FA
:10458000742003230FE0FB681B68DA69BB681340E3
:10459000BA689A420CBF01230023DBB21A46FB79AA
:1045A0009A4291D0002318461037BD4680BD0000C6
:1045B00080B485B000AF786039600023FB600023D1
:1045C000BB603B681B68012B27D07B681B68FB60C6
:1045D000FA682F4B1340FB603B685A683B689B6846
:1045E0001A433B68DB681A433B681B691A433B6804
:1045F0005B691A433B689B691A433B68DB691A4352
:104600003B681B6A1A433B685B6A1343FA681343AF
:10461000FB607B68FA681A6032E07B681B68FB60AD
:10462000FB6823F4F843FB603B68DA693B681B6A6C
:104630001A433B685B6A1343FA681343FB607B6869
:104640005B68BB60BA68124B1340BB603B685A683A
:104650003B689B681A433B68DB681A433B681B69ED
:104660001A433B685B691A433B689B691343BA680A
:104670001343BB607B68FA681A607B68BA685A604B
:10468000002318461437BD465DF8047B704700BF11
:104690000080FFFF80B487B000AFF860B9607A6037
:1046A00000237B6100233B617B68012B2ED0FB68DC
:1046B0009B687B617B6903F070437B61BB681B680F
:1046C0005A1EBB685B68013B1B011A43BB689B68B1
:1046D000013B1B021A43BB68DB68013B1B031A4307
:1046E000BB681B69013B1B041A43BB685B69013B48
:1046F0001B051A43BB689B69013B1B0613437A6980
:1047000013437B61FB687A699A6039E0FB689B68B8
:104710007B617A691E4B13407B61BB68DB68013BA0
:104720001A03BB685B69013B1B0513437A6913439A
:104730007B61FB68DB683B613B6903F070433B6175
:10474000BB681B685A1EBB685B68013B1B011A43B0
:10475000BB689B68013B1B021A43BB681B69013B9A
:104760001B041A43BB689B69013B1B0613433A6950
:1047700013433B61FB687A699A60FB683A69DA60C7
:10478000002318461C37BD465DF8047B704700BF08
:10479000FF0F0FFF80B500AF0449054800F0B0F8E7
:1047A00003461A46034B1A7000BF80BDDC4D002043
:1047B0000C000020E04D002080B483B000AF034621
:1047C000FB71064B01221A70044B1B78DBB21846B2
:1047D0000C37BD465DF8047B704700BF0900002020
:1047E00080B483B000AF0346FB71064B01221A7000
:1047F000044B1B78DBB218460C37BD465DF8047BD2
:10480000704700BF0900002080B485B000AFB960D8
:104810007A603B600346FB73002318461437BD469D
:104820005DF8047B704780B485B000AFB9607A60F2
:104830003B600346FB73002318461437BD465DF802
:10484000047B704780B485B000AF03463A60FB71CB
:104850000B46BB710123FB73FB7B18461437BD4627
:104860005DF8047B7047000080B487B000AFF8604B
:10487000B9601346FB710123FB750023BB751F4B09
:104880005B7ADBB2002B31D11C4B5B7ADBB21A4670
:104890001A4B00219954194B5B7ADBB2174A9B00E3
:1048A0001344FA685A60154B5B7ADBB21A46134B15
:1048B0001344FA791A72114B5B7ADBB25A1CD1B2EB
:1048C0000E4A5172BB75BB7D3033DAB2BB681A70C9
:1048D000BB6801333A221A70BB6802332F221A7068
:1048E000BB68033300221A700023FB75FB7D18465A
:1048F0001C37BD465DF8047B704700BF44000020B4
:1049000080B582B000AF786039600022396878687D
:10491000FFF7AAFF034618460837BD4680BD80B49E
:1049200000AF00BFBD465DF8047B704780B485B022
:1049300000AFEFF30583BB60BB68002B0FD1EFF333
:1049400010837B607B68002B05D1EFF311833B6004
:104950003B68002B07D00E4B1B68022B03D16FF076
:104960000503FB600CE00A4B1B68002B05D1084BCC
:1049700001221A600023FB6002E04FF0FF33FB606E
:10498000FB6818461437BD465DF8047B704700BFCE
:104990005000002080B584B000AFEFF30583BB600A
:1049A000BB68002B0FD1EFF310837B607B68002B7B
:1049B00005D1EFF311833B603B68002B07D00F4B11
:1049C0001B68022B03D16FF00503FB6010E00B4B5B
:1049D0001B68012B09D1FFF7A2FF084B02221A60C6
:1049E00001F0B4F80023FB6002E04FF0FF33FB60FE
:1049F000FB6818461037BD4680BD00BF5000002040
:104A000080B590B004AFF860B9607A6000233B6174
:104A1000EFF30583FB61FB69002B40F08F80EFF320
:104A20001083BB61BB69002B05D1EFF311837B6160
:104A30007B69002B03D0444B1B68022B7ED0FB68A4
:104A4000002B7BD08023BB6218237B620023FB6298
:104A50004FF0FF333B627B68002B45D07B681B68BF
:104A6000002B02D07B681B68FB627B689B69002B74
:104A700002D07B689B697B627B6A002B08D07B6AD3
:104A8000382B05D87B685B6803F00103002B01D04D
:104A9000002354E07B685B69002B03D07B685B6973
:104AA0009B08BB627B689B68002B0ED07B68DB6831
:104AB0005B2B0AD97B681B69002B06D07B685B697E
:104AC000002B02D001233B6210E07B689B68002B27
:104AD0000CD17B68DB68002B08D17B681B69002B3D
:104AE00004D100233B6201E000233B623B6A012BBF
:104AF00010D17B681B697A689268029201937B6A85
:104B00000093BB68BA6AF96AF86800F03FFE034692
:104B10003B6113E03B6A002B10D1BB6A9AB207F1EC
:104B2000100301937B6A0093BB68F96AF86800F090
:104B300090FE0346012B01D000233B613B691846E0
:104B40003037BD4680BD00BF5000002080B586B024
:104B500000AF7860EFF305833B613B69002B0FD119
:104B6000EFF31083FB60FB68002B05D1EFF311839B
:104B7000BB60BB68002B07D00A4B1B68022B03D11C
:104B80006FF005037B6107E000237B617B68002BEE
:104B900002D0786800F0A4FF7B6918461837BD463C
:104BA00080BD00BF5000002080B485B000AFF86029
:104BB000B9607A60FB68074A1A60BB68064A1A60E7
:104BC0007B6880221A6000BF1437BD465DF8047B05
:104BD000704700BF54000020B000002080B485B0B2
:104BE00000AFF860B9607A60FB68074A1A60BB687A
:104BF000064A1A607B684FF480721A6000BF14374F
:104C0000BD465DF8047B7047B00200200C03002015
:104C100080B483B000AF78607B6803F108027B68E2
:104C20005A607B684FF0FF329A607B6803F108029C
:104C30007B68DA607B6803F108027B681A617B6835
:104C400000221A6000BF0C37BD465DF8047B704738
:104C500080B483B000AF78607B6800221A6100BF27
:104C60000C37BD465DF8047B704780B485B000AF5B
:104C7000786039607B685B68FB603B68FA685A6003
:104C8000FB689A683B689A60FB689B683A685A6060
:104C9000FB683A689A603B687A681A617B681B68AF
:104CA0005A1C7B681A6000BF1437BD465DF8047B50
:104CB000704780B485B000AF786039603B681B688E
:104CC000BB60BB68B3F1FF3F03D17B681B69FB602E
:104CD0000CE07B680833FB6002E0FB685B68FB600C
:104CE000FB685B681B68BA689A42F6D2FB685A6830
:104CF0003B685A603B685B683A689A603B68FA6850
:104D00009A60FB683A685A603B687A681A617B6807
:104D10001B685A1C7B681A6000BF1437BD465DF8DB
:104D2000047B704780B485B000AF78607B681B69F6
:104D3000FB607B685B687A6892689A607B689B68B6
:104D40007A6852685A60FB685B687A689A4203D155
:104D50007B689A68FB685A607B6800221A61FB686E
:104D60001B685A1EFB681A60FB681B6818461437DC
:104D7000BD465DF8047B704780B584B000AF7860B5
:104D800039607B68FB60FB68002B0CD14FF050034F
:104D900072B683F31188BFF36F8FBFF34F8F62B684
:104DA000BB6000BFFEE702F079F8FB681A68FB6899
:104DB000DB6BF968096C01FB03F31A44FB689A602A
:104DC000FB6800229A63FB681A68FB685A60FB68FC
:104DD0001A68FB68DB6B013BF968096C01FB03F3A4
:104DE0001A44FB68DA60FB68FF2283F84420FB6802
:104DF000FF2283F845203B68002B14D1FB681B6918
:104E0000002B1AD0FB681033184601F037F903461F
:104E1000002B12D00C4B4FF080521A60BFF34F8F13
:104E2000BFF36F8F09E0FB6810331846FFF7F0FE01
:104E3000FB6824331846FFF7EBFE02F063F801230A
:104E400018461037BD4680BD04ED00E080B58EB039
:104E500002AFF860B9607A603B60FB68002B0CD150
:104E60004FF0500372B683F31188BFF36F8FBFF317
:104E70004F8F62B6BB6200BFFEE73B68002B0CD1D0
:104E80004FF0500372B683F31188BFF36F8FBFF3F7
:104E90004F8F62B67B6200BFFEE77B68002B02D0BB
:104EA000BB68002B01D0012300E00023002B0CD1B4
:104EB0004FF0500372B683F31188BFF36F8FBFF3C7
:104EC0004F8F62B63B6200BFFEE77B68002B02D1CA
:104ED000BB68002B01D1012300E00023002B0CD183
:104EE0004FF0500372B683F31188BFF36F8FBFF397
:104EF0004F8F62B6FB6100BFFEE750237B617B6989
:104F0000502B0CD04FF0500372B683F31188BFF3CF
:104F10006F8FBFF34F8F62B6BB6100BFFEE77B6947
:104F20003B68FB62FB6A002B0DD0FB6A012283F811
:104F3000462097F83820FB6A009313467A68B968D0
:104F4000F86800F005F8FB6A18463037BD4680BDAA
:104F500080B584B000AFF860B9607A60FB70BB6860
:104F6000002B03D1BB69BA691A6002E0BB697A6899
:104F70001A60BB69FA68DA63BB69BA681A6401210E
:104F8000B869FFF7F9FEBB69FA7883F84C2000BFD7
:104F90001037BD4680BD000080B58EB000AFF86010
:104FA000B9607A603B6000237B63FB683B633B6BCB
:104FB000002B0CD14FF0500372B683F31188BFF36E
:104FC0006F8FBFF34F8F62B6BB6200BFFEE7BB6857
:104FD000002B03D13B6B1B6C002B01D1012300E0A4
:104FE0000023002B0CD14FF0500372B683F31188CD
:104FF000BFF36F8FBFF34F8F62B67B6200BFFEE7D8
:105000003B68022B03D13B6BDB6B012B01D10123EE
:1050100000E00023002B0CD14FF0500372B683F355
:105020001188BFF36F8FBFF34F8F62B63B6200BF33
:10503000FEE701F0E9F90346002B02D17B68002B63
:1050400001D1012300E00023002B0CD14FF05003CD
:1050500072B683F31188BFF36F8FBFF34F8F62B6C1
:10506000FB6100BFFEE701F019FF3B6B9A6B3B6BE6
:10507000DB6B9A4202D33B68022B29D13A68B968AC
:10508000386B00F015FAF8623B6B5B6A002B10D0AE
:105090003B6B2433184600F0F1FF0346002B13D07E
:1050A0003F4B4FF080521A60BFF34F8FBFF36F8FAB
:1050B0000AE0FB6A002B07D0394B4FF080521A6090
:1050C000BFF34F8FBFF36F8F01F01CFF012363E02D
:1050D0007B68002B03D101F015FF00235CE07B6BA4
:1050E000002B06D107F11403184601F02DF8012317
:1050F0007B6301F007FF00F093FD01F0CFFE3B6BF7
:1051000093F844305BB2B3F1FF3F03D13B6B002215
:1051100083F844203B6B93F845305BB2B3F1FF3F1B
:1051200003D13B6B002283F8452001F0EBFE3A1DD2
:1051300007F114031146184601F01CF80346002B32
:1051400024D1386B00F0ACFA0346002B18D03B6B2F
:1051500010337A681146184600F03CFF386B00F0B7
:1051600037FA00F06BFD0346002B7FF47CAF0C4B4D
:105170004FF080521A60BFF34F8FBFF36F8F72E70B
:10518000386B00F025FA00F059FD6CE7386B00F041
:105190001FFA00F053FD002318463837BD4680BD86
:1051A00004ED00E080B58EB000AFF860B9607A60C1
:1051B0003B60FB683B633B6B002B0CD14FF0500313
:1051C00072B683F31188BFF36F8FBFF34F8F62B650
:1051D0007B6200BFFEE7BB68002B03D13B6B1B6CFF
:1051E000002B01D1012300E00023002B0CD14FF054
:1051F000500372B683F31188BFF36F8FBFF34F8FE5
:1052000062B63B6200BFFEE73B68022B03D13B6BFB
:10521000DB6B012B01D1012300E00023002B0CD11B
:105220004FF0500372B683F31188BFF36F8FBFF353
:105230004F8F62B6FB6100BFFEE701F017FFEFF38F
:1052400011824FF0500372B683F31188BFF36F8F52
:10525000BFF34F8F62B6BA617B61BB69FB623B6B88
:105260009A6B3B6BDB6B9A4202D33B68022B2CD1CF
:105270003B6B93F8453087F82B303A68B968386B48
:1052800000F016F997F92B30B3F1FF3F12D13B6BC9
:105290005B6A002B16D03B6B2433184600F0EEFE01
:1052A0000346002B0ED07B68002B0BD07B680122BD
:1052B0001A6007E097F82B300133DBB25AB23B6B30
:1052C00083F8452001237B6301E000237B63FB6AB5
:1052D0003B613B6983F3118800BF7B6B184638370D
:1052E000BD4680BD80B58CB000AFF860B9607A6013
:1052F0000023FB62FB68BB62BB6A002B0CD14FF042
:10530000500372B683F31188BFF36F8FBFF34F8FD3
:1053100062B63B6200BFFEE7BB68002B03D1BB6AED
:105320001B6C002B01D1012300E00023002B0CD1CA
:105330004FF0500372B683F31188BFF36F8FBFF342
:105340004F8F62B6FB6100BFFEE701F05DF80346D8
:10535000002B02D17B68002B01D1012300E0002348
:10536000002B0CD14FF0500372B683F31188BFF3BA
:105370006F8FBFF34F8F62B6BB6100BFFEE701F0D6
:105380008DFDBB6A9B6B7B627B6A002B1FD0B9686B
:10539000B86A00F0F7F87B6A5A1EBB6A9A63BB6A68
:1053A0001B69002B0FD0BB6A1033184600F066FE55
:1053B0000346002B07D03D4B4FF080521A60BFF3DD
:1053C0004F8FBFF36F8F01F09DFD012369E07B6874
:1053D000002B03D101F096FD002362E0FB6A002B55
:1053E00006D107F11003184600F0AEFE0123FB6260
:1053F00001F088FD00F014FC01F050FDBB6A93F849
:1054000044305BB2B3F1FF3F03D1BB6A002283F8A3
:105410004420BB6A93F845305BB2B3F1FF3F03D140
:10542000BB6A002283F8452001F06CFD3A1D07F1AC
:1054300010031146184600F09DFE0346002B23D1B1
:10544000B86A00F017F90346002B17D0BB6A243363
:105450007A681146184600F0BDFDB86A00F0B8F849
:1054600000F0ECFB0346002B89D1104B4FF080522B
:105470001A60BFF34F8FBFF36F8F80E7B86A00F0F9
:10548000A7F800F0DBFB7AE7B86A00F0A1F800F0BB
:10549000D5FBB86A00F0EEF80346002B3FF46FAF7F
:1054A000002318463037BD4680BD00BF04ED00E044
:1054B00080B586B000AFF860B9607A6000237B6188
:1054C000FB689B6B3B61FB681B6C002B0DD1FB6881
:1054D0001B68002B4DD1FB689B68184600F0B2FF9B
:1054E0007861FB6800229A6043E07B68002B19D149
:1054F000FB685868FB681B6C1A46B96802F002F832
:10550000FB685A68FB681B6C1A44FB685A60FB68AE
:105510005A68FB689B689A422BD3FB681A68FB6841
:105520005A6026E0FB68D868FB681B6C1A46B968AD
:1055300001F0E8FFFB68DA68FB681B6C5B421A4409
:10554000FB68DA60FB68DA68FB681B689A4207D27E
:10555000FB689A68FB681B6C5B421A44FB68DA6064
:105560007B68022B05D13B69002B02D03B69013BD4
:105570003B613B695A1CFB689A637B691846183784
:10558000BD4680BD80B582B000AF786039607B6871
:105590001B6C002B18D07B68DA687B681B6C1A4484
:1055A0007B68DA607B68DA687B689B689A4203D321
:1055B0007B681A687B68DA607B68D9687B681B6CDB
:1055C0001A46386801F09EFF00BF0837BD4680BD0F
:1055D00080B584B000AF786001F060FC7B6893F820
:1055E0004530FB7311E07B685B6A002B12D07B684F
:1055F0002433184600F042FD0346002B01D000F092
:105600001FFEFB7B013BDBB2FB7397F90F30002BD6
:10561000E9DC00E000BF7B68FF2283F8452001F051
:1056200071FC01F03BFC7B6893F84430BB7311E0E4
:105630007B681B69002B12D07B681033184600F082
:105640001DFD0346002B01D000F0FAFDBB7B013BA2
:10565000DBB2BB7397F90E30002BE9DC00E000BF32
:105660007B68FF2283F8442001F04CFC00BF103718
:10567000BD4680BD80B584B000AF786001F00EFCFF
:105680007B689B6B002B02D10123FB6001E00023B0
:10569000FB6001F037FCFB6818461037BD4680BD43
:1056A00080B584B000AF786001F0F8FB7B689A6B3E
:1056B0007B68DB6B9A4202D10123FB6001E000238F
:1056C000FB6001F01FFCFB6818461037BD4680BD2B
:1056D00080B485B000AF786039600023FB6014E0CF
:1056E0000F4AFB6852F83330002B0BD10C49FB6892
:1056F0003A6841F833200A4AFB68DB0013447A68B1
:105700005A6006E0FB680133FB60FB68072BE7D9B2
:1057100000BF00BF1437BD465DF8047B704700BF73
:105720004852002080B586B000AFF860B9607A605A
:10573000FB687B6101F0B2FB7B6993F844305BB29C
:10574000B3F1FF3F03D17B69002283F844207B69DA
:1057500093F845305BB2B3F1FF3F03D17B69002280
:1057600083F8452001F0CEFB7B699B6B002B06D1B3
:105770007B6924337A68B968184600F051FC78696F
:10578000FFF726FF00BF1837BD4680BD80B58EB03D
:1057900004AFF860B9607A603B607B6B002B0CD182
:1057A0004FF0500372B683F31188BFF36F8FBFF3CE
:1057B0004F8F62B63B6200BFFEE7BB6B002B0CD184
:1057C0004FF0500372B683F31188BFF36F8FBFF3AE
:1057D0004F8F62B6FB6100BFFEE75C233B613B6914
:1057E0005C2B0CD04FF0500372B683F31188BFF3DB
:1057F0006F8FBFF34F8F62B6BB6100BFFEE73B699F
:10580000BB6B002B1ED07B6B002B1BD0BB6B7B625A
:105810007B6A7A6B1A637B6A022283F85920002321
:1058200003937B6A029307F1140301933B6B00938C
:105830003B687A68B968F86800F050F8786A00F058
:10584000DFF801E000237B617B6918462837BD46FD
:1058500080BD80B58CB004AFF860B9603B60134682
:10586000FB80FB889B00184601F044FC78617B6953
:10587000002B0ED05C2001F03DFCF861FB69002B91
:1058800003D0FB697A691A6305E0786901F0FCFCD2
:1058900001E00023FB61FB69002B17D0FB690022AC
:1058A00083F85920FA8800230393FB690293FB6A6B
:1058B0000193BB6A00933B68B968F86800F00EF882
:1058C000F86900F09DF80123BB6102E04FF0FF335F
:1058D000BB61BB6918462037BD4680BD80B588B026
:1058E00000AFF860B9607A603B603B6B186B7B6817
:1058F0009B001A46A52101F013FE3B6B1A6B7968D9
:105900006FF040430B449B001344BB61BB6923F021
:105910000703BB61BB6903F00703002B0CD04FF0FA
:10592000500372B683F31188BFF36F8FBFF34F8FAD
:1059300062B67B6100BFFEE7BB68002B1FD000236F
:10594000FB6112E0BA68FB69134419783A6BFB6992
:10595000134434330A461A70BA68FB6913441B783F
:10596000002B06D0FB690133FB61FB690F2BE9D9E2
:1059700000E000BF3B6B002283F8432003E03B6B59
:10598000002283F83420BB6A372B01D93723BB624E
:105990003B6BBA6ADA623B6BBA6ADA643B6B002231
:1059A0001A653B6B04331846FFF752F93B6B18330B
:1059B0001846FFF74DF93B6B3A6B1A61BB6AC3F1AE
:1059C00038023B6B9A613B6B3A6B5A623B6B00222D
:1059D0005A653B6B002283F858203A68F968B86929
:1059E00001F052F902463B6B1A60FB6A002B02D0B1
:1059F000FB6A3A6B1A6000BF2037BD4680BD0000CD
:105A000080B582B000AF786001F048FA2D4B1B687A
:105A100001332C4A13602C4B1B68002B09D12A4AF6
:105A20007B681360274B1B68012B10D100F02CFC06
:105A30000DE0264B1B68002B09D1234B1B68DA6A4B
:105A40007B68DB6A9A4202D81F4A7B681360204B4E
:105A50001B6801331E4A13601D4B1A687B685A6429
:105A60007B68DA6A1B4B1B689A4203D97B68DB6A46
:105A7000184A13607B68DA6A13469B0013449B0044
:105A8000154A1A447B68043319461046FFF7EDF8AF
:105A900001F038FA0D4B1B68002B0ED00A4B1B6827
:105AA000DA6A7B68DB6A9A4207D20C4B4FF080526D
:105AB0001A60BFF34F8FBFF36F8F00BF0837BD462B
:105AC00080BD00BFE00B00200C070020EC0B002085
:105AD000FC0B0020E80B00201007002004ED00E084
