:100000000C9458000C9480000C9480000C94800098
:100010000C9480000C9480000C9480000C94800060
:100020000C9480000C9480000C9480000C94800050
:100030000C9480000C9480000C9480000C94800040
:100040000C9474050C9480000C9442050C941C05CF
:100050000C9480000C9480000C9480000C94800020
:100060000C94BE050C9480000000000025002800C0
:100070002B00040404040404040402020202020229
:10008000030303030303010204081020408001025C
:1000900004081020010204081020000000080002DB
:1000A0000100000304070000000000000000EC064F
:1000B00011241FBECFEFD8E0DEBFCDBF11E0A0E01E
:1000C000B1E0E8EEF1E102C005900D92AA34B1076B
:1000D000D9F722E0AAE4B1E001C01D92AB3CB2071F
:1000E000E1F710E0C8E5D0E004C02197FE010E94CE
:1000F000E708C735D107C9F70E9428070C94F20812
:100100000C9400002091120290911102213208F00B
:100110004AC08091EE018111FCCF32E03093EE01B4
:1001200031E03093ED013FEF3093EC011092EB01A1
:100130002093EA01A1EFB1E04AEC51E0FA013E2F31
:10014000341B321718F43D913193F9CF1092C90145
:100150002091C901990F922B9093C9019091C801E8
:10016000913061F41092C8019091C9019093BB0045
:100170009091BC0093FDF8CF95EC01C095EE909363
:10018000BC009091EE019230E1F39091EC019F3F21
:1001900079F08091EC01803241F08091EC01803364
:1001A00031F084E005C081E003C082E001C083E05B
:1001B0001092F001109212021092EF01089590E057
:1001C000FC01E656FF4F2491FC01EA57FF4F3491A2
:1001D000FC01EE58FF4FE491EE23B1F1222339F1F7
:1001E000233091F038F42130A9F0223001F584B5A4
:1001F0008F7D12C0273091F02830A1F02430B9F45F
:10020000809180008F7D03C0809180008F778093E4
:1002100080000DC084B58F7784BD09C08091B00087
:100220008F7703C08091B0008F7D8093B000F0E0A5
:10023000EE0FFF1FE859FF4FA591B4918FB7F894C7
:10024000EC913E2B3C938FBF0895CF92DF92EF92BB
:10025000FF920F931F93CF93DF936C017A018B0171
:10026000C0E0D0E0CE15DF0589F0D8016D918D0199
:10027000D601ED91FC910190F081E02DC601099528
:10028000892B11F47E0102C02196ECCFC701DF91CA
:10029000CF911F910F91FF90EF90DF90CF90089535
:1002A000FC01538D448D252F30E0842F90E0821B7C
:1002B000930B541710F0CF96089501970895FC0101
:1002C000918D828D981761F0828DDF01A80FB11D8D
:1002D0005D968C91928D9F5F9F73928F90E00895B1
:1002E0008FEF9FEF0895FC01918D828D981731F06B
:1002F000828DE80FF11D858D90E008958FEF9FEFBF
:100300000895FC01918D228D892F90E0805C9F4F94
:10031000821B91098F739927089583E192E00E94CF
:10032000810121E0892B09F420E0822F0895FC014E
:10033000848DDF01A80FB11DA35ABF4F2C91848D6E
:1003400090E001968F739927848FA689B7892C93A3
:10035000A089B1898C9180648C93938D848D98133E
:1003600006C00288F389E02D80818F7D8083089507
:10037000EF92FF920F931F93CF93DF93EC0181E0F5
:10038000888F9B8D8C8D981305C0E889F9898081B1
:1003900085FD24C0F62E0B8D10E00F5F1F4F0F73ED
:1003A0001127E02E8C8DE8120CC00FB607FCFACF97
:1003B000E889F989808185FFF5CFCE010E949701F8
:1003C000F1CF8B8DFE01E80FF11DE35AFF4FF08254
:1003D0000B8FEA89FB898081806207C0EE89FF89E3
:1003E0006083E889F98980818064808381E090E07E
:1003F000DF91CF911F910F91FF90EF900895CF93D0
:10040000DF93EC01888D8823C9F0EA89FB8980811C
:1004100085FD05C0A889B9898C9186FD0FC00FB6EE
:1004200007FCF5CF808185FFF2CFA889B9898C912F
:1004300085FFEDCFCE010E949701E7CFDF91CF91ED
:10044000089580E090E0892B29F00E948D018111B0
:100450000C94000008953FB7F8948091B6019091F4
:10046000B701A091B801B091B90126B5A89B05C00C
:100470002F3F19F00196A11DB11D3FBFBA2FA92F23
:10048000982F8827820F911DA11DB11DBC01CD01A0
:1004900042E0660F771F881F991F4A95D1F708958C
:1004A00085ED8093BC008091BC0084FDFCCF109250
:1004B000EE01089540918C01262F30E0240F311D6C
:1004C00021323105DCF42091EE012430C9F4FC0125
:1004D00080E090E0861758F430918C012191DC0186
:1004E000A659BE4FA30FB11D2C930196F3CF809157
:1004F0008C01680F60938C0180E0089581E008957D
:1005000082E008950895E091BB018091BA01E81757
:1005100030F4F0E0E65BFE4F808190E008958FEFCD
:100520009FEF08959091BB018091BA01981750F404
:10053000E92FF0E0E65BFE4F208130E09F5F909373
:10054000BB0102C02FEF3FEFC90108958091BA01AE
:1005500090E02091BB01821B91090895CF92DF9218
:10056000EF92FF920F931F93CF93DF937C01262F7F
:10057000972F8A018091EF01882391F0C62FD72F02
:100580006E01C40ED51ECC15DD0571F06991D70141
:10059000ED91FC910190F081E02DC7010995F3CF19
:1005A000642F822F0E945A02C801DF91CF911F91C0
:1005B0000F91FF90EF90DF90CF900895CF93DF934E
:1005C0001F92CDB7DEB769832091EF012223D1F0CE
:1005D00020911202203240F021E030E0FC01338310
:1005E000228380E090E015C08091F001E82FF0E0D8
:1005F000EF50FE4F998190838F5F8093F00180933D
:10060000120205C061E0CE0101960E945A0281E00B
:1006100090E00F90DF91CF910895CF93DF93EA019F
:1006200091E09093EF01809311021092F0011092EB
:10063000120280EB92E00E94DE02688180EB92E081
:100640000E94DE020E94820091E0811190E0892FD9
:10065000DF91CF910895089580E090E0089500978C
:1006600069F0FC0101900020E9F73197AF01481BC8
:10067000590BBC0183E192E00C94250180E090E0ED
:1006800008958F929F92AF92BF920F931F93CF9333
:10069000DF93CDB7DEB7A1970FB6F894DEBF0FBEDC
:1006A000CDBF19A2423008F44AE08E010F5D1F4F02
:1006B000842E912CA12CB12CA50194010E94C50877
:1006C000E62FB901CA0101501109EA3014F4E05DC6
:1006D00001C0E95CD801EC93232B242B252B61F777
:1006E000C8010E942F03A1960FB6F894DEBF0FBE7B
:1006F000CDBFDF91CF911F910F91BF90AF909F9091
:100700008F900895CF92DF92EF92FF92CF93DF9375
:100710006B017C01E0911302F09114020190F081D1
:10072000E02D6DE283E192E00995EC0166277727E1
:10073000CB016C197D098E099F094AE00E94410393
:100740008C0F9D1FDF91CF91FF90EF90DF90CF90A6
:100750000895BC01990F880B990B97FD0C948203A7
:100760004AE00C9441032F923F924F925F926F9216
:100770007F928F929F92AF92BF92CF92DF92EF9231
:10078000FF920F931F93CF93DF93CDB7DEB72797D9
:100790000FB6F894DEBF0FBECDBF8F83962E4E836B
:1007A00059018FB7F894C090B201D090B301E09096
:1007B000B401F090B5018FBF5F81550F5B83812C31
:1007C000312C222423945E81452F50E05D834C839D
:1007D0002801612C712C4E81841608F09DC0209256
:1007E000EF015F81509311021092F00110921202FA
:1007F000692D80EB92E00E94DE020E94820020922E
:10080000EF011092F001109212028091EE0181111D
:10081000FCCF2C813D81281931092132310514F09A
:1008200020E230E0213208F020E22092EE01209216
:10083000ED018FEF8093EC011092EB01820F80931A
:10084000EA012092C9018091C9014B81842B8093D8
:10085000C9018091C801813071F41092C801809162
:10086000C9018093BB008091BC0083FDF8CF55EC9B
:100870005093BC0003C085EE8093BC008091EE01D4
:100880008130E1F38091EB01821710F42091EB01AC
:10089000AAECB1E0EAE4F1E08E2F4AE451E0841BD7
:1008A000821718F48D918193F7CF1092BB0120939A
:1008B000BA019091BA018091BB01981739F10115E5
:1008C000110581F4A501430D511D37FC5A955A833A
:1008D000498380EB92E00E949202E981FA81808351
:1008E0003394E7CF2FB7F8948091B2019091B30180
:1008F000A091B401B091B5012FBF8C199D09AE092B
:10090000BF0984159505A605B705E0F28E818132F1
:1009100008F080E2880E5FCF832D0115110501F1EB
:100920009FB7F8944091B2015091B3016091B40126
:100930007091B5019FBF4C195D096E097F0920E0D8
:1009400030E0401751076207730750F09E81492F2E
:1009500050E0232D330C330B241735070CF48FEFA5
:1009600027960FB6F894DEBF0FBECDBFDF91CF91B3
:100970001F910F91FF90EF90DF90CF90BF90AF90BD
:100980009F908F907F906F905F904F903F902F90AF
:100990000895BF92CF92DF92EF92FF920F931F9331
:1009A000CF93DF9300D0CDB7DEB7F82EE62EC42E5E
:1009B000B22ED02E08EE13E09E012E5F3F4F41E095
:1009C0000E94B303882349F14C2D50E04B19510983
:1009D0004F5F5F4F21E030E002C0220F331FBA9417
:1009E000E2F721503109042E01C0220F0A94EAF7E0
:1009F0008D2D01C0880F4A95EAF7322F30959A81E4
:100A000093232823292B2A832983AE014F5F5F4F2D
:100A10006E2D8F2D0E940D0301C080E00F900F906E
:100A2000DF91CF911F910F91FF90EF90DF90CF90CA
:100A3000BF9008950E94ED081F920F920FB60F927B
:100A400011242F933F934F935F936F937F938F93D3
:100A50009F93AF93BF93EF93FF9383E192E00E9444
:100A60009701FF91EF91BF91AF919F918F917F91EE
:100A70006F915F914F913F912F910F900FBE0F900B
:100A80001F9018951F920F920FB60F9211242F935B
:100A90008F939F93EF93FF93E0912302F0912402B1
:100AA0008081E0912902F0912A0282FD12C090819A
:100AB00080912C028F5F8F7320912D02821751F04D
:100AC000E0912C02F0E0ED5EFD4F958F80932C02BB
:100AD00001C08081FF91EF919F918F912F910F9095
:100AE0000FBE0F901F9018951F920F920FB60F9286
:100AF00011242F933F938F939F93AF93BF93809134
:100B0000B2019091B301A091B401B091B5013091BF
:100B1000B10123E0230F2D3720F40196A11DB11D53
:100B200005C026E8230F0296A11DB11D2093B10137
:100B30008093B2019093B301A093B401B093B50137
:100B40008091B6019091B701A091B801B091B9011F
:100B50000196A11DB11D8093B6019093B701A0939A
:100B6000B801B093B901BF91AF919F918F913F911F
:100B70002F910F900FBE0F901F9018951F920F92FC
:100B80000FB60F9211242F933F934F935F936F9360
:100B90007F938F939F93AF93BF93EF93FF93809136
:100BA000B900887F803609F49CC068F5883209F462
:100BB0005BC090F4803109F454C038F4882309F400
:100BC000F6C0883009F44DC0F6C0883109F44CC035
:100BD000803209F45DC0EFC0803409F468C048F485
:100BE000803309F455C0883309F0E5C08093EC01E7
:100BF000D8C0803509F44FC0883509F45DC0883409
:100C000009F0D9C0D6C0883909F4C7C0A8F488371C
:100C100009F467C038F4883609F463C0803709F4F2
:100C200060C0C9C0883809F4B8C0803909F45FC011
:100C3000803809F0C0C05BC0803B09F486C038F43E
:100C4000803A09F466C0883A09F47FC0B4C0803C99
:100C500009F4A7C0883C09F4A4C0883B09F48AC001
:100C6000AAC08091C90110C09091EB018091EA0166
:100C7000981770F5E091EB0181E08E0F8093EB0106
:100C8000F0E0E653FE4F80818093BB0085EC86C088
:100C90008093EC018EC0E091EB0181E08E0F809398
:100CA000EB018091BB00F0E0E653FE4F8083909112
:100CB000EB018091EA016EC0E091EB0181E08E0FC3
:100CC0008093EB018091BB00F0E0E653FE4F808300
:100CD0008091ED0181116DC081E08093C80184EAAB
:100CE00061C083E08093EE011092B001CFCF80917C
:100CF000B001803208F051C0E091B00181E08E0F68
:100D00008093B0018091BB00F0E0E057FE4F8083FC
:100D1000BDCF85EC8093BC001092EE018091B001B4
:100D2000803230F4E091B001F0E0E057FE4F1082E5
:100D30006091B00170E0E0918E01F0918F0180E947
:100D400091E009951092B00136C084E08093EE01E5
:100D500010928D0110928C01E0918A01F0918B012B
:100D6000099580918C01811105C081E080938C01EF
:100D700010926A01E0918D0181E08E0F80938D01C8
:100D8000F0E0E659FE4F80818093BB0090918D0189
:100D900080918C01981708F479CF85E88093BC0086
:100DA0000AC085EC8093BC001092EE0104C0109242
:100DB000EC010E945002FF91EF91BF91AF919F9182
:100DC0008F917F916F915F914F913F912F910F90F4
:100DD0000FBE0F901F901895E3E1F2E0138212828C
:100DE00088EE93E0A0E0B0E084839583A683B78388
:100DF00024E031E03183208325EC30E035872487FF
:100E000024EC30E03787268720EC30E0318B208BD4
:100E100021EC30E0338B228B22EC30E0358B248BBD
:100E200026EC30E0378B268B118E128E138E148EAB
:100E3000E0EBF2E01382128284839583A683B7836A
:100E400086E191E09183808388E68093BC020895D7
:100E5000CF93DF9300D0CDB7DEB7789484B58260AE
:100E600084BD84B5816084BD85B5826085BD85B54E
:100E7000816085BD80916E00816080936E001092CC
:100E80008100809181008260809381008091810047
:100E900081608093810080918000816080938000D8
:100EA0008091B10084608093B1008091B000816036
:100EB0008093B00080917A00846080937A00809162
:100EC0007A00826080937A0080917A0081608093BA
:100ED0007A0080917A00806880937A001092C10035
:100EE0001092BB011092BA011092F00110921202FE
:100EF0001092EE0181E08093ED011092C80182E131
:100F00000E94DF0083E10E94DF008091B9008E7FA4
:100F10008093B9008091B9008D7F8093B90088E4F7
:100F20008093B80085E48093BC00E0912302F091A7
:100F3000240282E08083E0911F02F091200210825F
:100F4000E0912102F091220283E3808310922B0230
:100F5000E0912702F091280286E08083E09125024B
:100F6000F0912602808180618083E0912502F091DA
:100F70002602808188608083E0912502F09126021C
:100F8000808180688083E0912502F0912602808133
:100F90008F7D808384E291E00E942F0380E491E0C2
:100FA0000E942F0301E023E042E06BE68091BC0247
:100FB0000E94C90400E022E044E06BE18091BC02A1
:100FC0000E94C90422E044E06CE18091BC020E94CE
:100FD000C904F090BC0208EE13E09E012E5F3F4F63
:100FE00041E06BE68F2D0E94B3039A819F7B9A8329
:100FF0009983AE014F5F5F4F6BE68F2D0E940D030B
:101000000E942B024B015C01E4E6CE2ED12CE12C98
:10101000F12C0E942B02DC01CB0188199909AA0945
:10102000BB09883E9340A105B10558F021E0C21AE2
:10103000D108E108F10888EE880E83E0981EA11C13
:10104000B11CC114D104E104F10419F708EE13E056
:101050002DEB32E04EE06BE38091BC020E94B303C3
:101060008091BD0290E0982F88272091BE02822BAC
:101070009093C7018093C6018091BF0290E0982FA2
:1010800088272091C002822B9093C5018093C401D0
:101090008091C10290E0982F88272091C202822B74
:1010A0009093C3018093C2018091C50290E0982F74
:1010B00088272091C602822B9093C1018093C001A2
:1010C0008091C70290E0982F88272091C802822B38
:1010D0009093BF018093BE018091C90290E0982F48
:1010E00088272091CA02822B9093BD018093BC0176
:1010F00083E491E00E942F038091C6019091C70183
:101100000E94A90387E491E00E942F038091C4010B
:101110009091C5010E94A90387E491E00E942F03EA
:101120008091C2019091C3010E94A90387E491E0DC
:101130000E942F038091C0019091C1010E94A903D8
:1011400087E491E00E942F038091BE019091BF013E
:101150000E94A90387E491E00E942F036091BC01E3
:101160007091BD01072E000C880B990B97FF03C0EF
:101170000E94820303C04AE00E94410380E491E0A0
:101180000E942F030E94210261CFA1E21A2EAA1B06
:10119000BB1BFD010DC0AA1FBB1FEE1FFF1FA21727
:1011A000B307E407F50720F0A21BB30BE40BF50B24
:1011B000661F771F881F991F1A9469F760957095AD
:1011C000809590959B01AC01BD01CF010895EE0F74
:1011D000FF1F0590F491E02D099481E090E0F894D0
:0811E0000C94F208F894FFCF13
:1011E80000000000B80125015001FF0181015F01E5
:1011F800730100000000DE02AE022C038202A60288
:1012080092028302496E697469616C697A696E67D2
:101218002049324320646576696365732E2E2E005B
:0A1228000D0A00612F673A0900006B
:107E0000112484B714BE81FFF0D085E080938100F7
:107E100082E08093C00088E18093C10086E0809377
:107E2000C20080E18093C4008EE0C9D0259A86E02C
:107E300020E33CEF91E0309385002093840096BBD3
:107E4000B09BFECF1D9AA8958150A9F7CC24DD24C4
:107E500088248394B5E0AB2EA1E19A2EF3E0BF2EE7
:107E6000A2D0813461F49FD0082FAFD0023811F036
:107E7000013811F484E001C083E08DD089C08234E0
:107E800011F484E103C0853419F485E0A6D080C0E4
:107E9000853579F488D0E82EFF2485D0082F10E0AE
:107EA000102F00270E291F29000F111F8ED06801E7
:107EB0006FC0863521F484E090D080E0DECF843638
:107EC00009F040C070D06FD0082F6DD080E0C81688
:107ED00080E7D80618F4F601B7BEE895C0E0D1E017
:107EE00062D089930C17E1F7F0E0CF16F0E7DF06D8
:107EF00018F0F601B7BEE89568D007B600FCFDCFD4
:107F0000A601A0E0B1E02C9130E011968C91119780
:107F100090E0982F8827822B932B1296FA010C0160
:107F200087BEE89511244E5F5F4FF1E0A038BF0790
:107F300051F7F601A7BEE89507B600FCFDCF97BE46
:107F4000E89526C08437B1F42ED02DD0F82E2BD052
:107F50003CD0F601EF2C8F010F5F1F4F84911BD097
:107F6000EA94F801C1F70894C11CD11CFA94CF0C13
:107F7000D11C0EC0853739F428D08EE10CD085E9AC
:107F80000AD08FE07ACF813511F488E018D01DD067
:107F900080E101D065CF982F8091C00085FFFCCF94
:107FA0009093C60008958091C00087FFFCCF809118
:107FB000C00084FD01C0A8958091C6000895E0E648
:107FC000F0E098E1908380830895EDDF803219F02E
:107FD00088E0F5DFFFCF84E1DECF1F93182FE3DFCA
:107FE0001150E9F7F2DF1F91089580E0E8DFEE27F6
:047FF000FF270994CA
:027FFE00040479
:0400000300007E007B
:00000001FF
